{
  "contractName": "Voting",
  "abi": [
    {
      "inputs": [],
      "payable": false,
      "stateMutability": "nonpayable",
      "type": "constructor"
    },
    {
      "anonymous": false,
      "inputs": [
        {
          "indexed": false,
          "internalType": "uint256",
          "name": "id",
          "type": "uint256"
        },
        {
          "indexed": false,
          "internalType": "string",
          "name": "name",
          "type": "string"
        },
        {
          "indexed": false,
          "internalType": "string",
          "name": "party",
          "type": "string"
        },
        {
          "indexed": false,
          "internalType": "string",
          "name": "info",
          "type": "string"
        },
        {
          "indexed": false,
          "internalType": "uint256",
          "name": "voteCount",
          "type": "uint256"
        }
      ],
      "name": "candidateAdded",
      "type": "event"
    },
    {
      "anonymous": false,
      "inputs": [
        {
          "indexed": false,
          "internalType": "uint256",
          "name": "candidateId",
          "type": "uint256"
        }
      ],
      "name": "userVoted",
      "type": "event"
    },
    {
      "constant": true,
      "inputs": [],
      "name": "admin",
      "outputs": [
        {
          "internalType": "address",
          "name": "",
          "type": "address"
        }
      ],
      "payable": false,
      "stateMutability": "view",
      "type": "function"
    },
    {
      "constant": true,
      "inputs": [],
      "name": "candidateCount",
      "outputs": [
        {
          "internalType": "uint256",
          "name": "",
          "type": "uint256"
        }
      ],
      "payable": false,
      "stateMutability": "view",
      "type": "function"
    },
    {
      "constant": true,
      "inputs": [
        {
          "internalType": "uint256",
          "name": "",
          "type": "uint256"
        }
      ],
      "name": "candidates",
      "outputs": [
        {
          "internalType": "uint256",
          "name": "id",
          "type": "uint256"
        },
        {
          "internalType": "string",
          "name": "name",
          "type": "string"
        },
        {
          "internalType": "string",
          "name": "party",
          "type": "string"
        },
        {
          "internalType": "string",
          "name": "info",
          "type": "string"
        },
        {
          "internalType": "uint256",
          "name": "voteCount",
          "type": "uint256"
        }
      ],
      "payable": false,
      "stateMutability": "view",
      "type": "function"
    },
    {
      "constant": true,
      "inputs": [
        {
          "internalType": "uint256",
          "name": "",
          "type": "uint256"
        }
      ],
      "name": "candidatesInfo",
      "outputs": [
        {
          "internalType": "uint256",
          "name": "id",
          "type": "uint256"
        },
        {
          "internalType": "string",
          "name": "name",
          "type": "string"
        },
        {
          "internalType": "string",
          "name": "party",
          "type": "string"
        },
        {
          "internalType": "string",
          "name": "info",
          "type": "string"
        },
        {
          "internalType": "uint256",
          "name": "voteCount",
          "type": "uint256"
        }
      ],
      "payable": false,
      "stateMutability": "view",
      "type": "function"
    },
    {
      "constant": true,
      "inputs": [],
      "name": "endVote",
      "outputs": [
        {
          "internalType": "bool",
          "name": "",
          "type": "bool"
        }
      ],
      "payable": false,
      "stateMutability": "view",
      "type": "function"
    },
    {
      "constant": true,
      "inputs": [],
      "name": "startVote",
      "outputs": [
        {
          "internalType": "bool",
          "name": "",
          "type": "bool"
        }
      ],
      "payable": false,
      "stateMutability": "view",
      "type": "function"
    },
    {
      "constant": true,
      "inputs": [
        {
          "internalType": "address",
          "name": "",
          "type": "address"
        }
      ],
      "name": "users",
      "outputs": [
        {
          "internalType": "bool",
          "name": "",
          "type": "bool"
        }
      ],
      "payable": false,
      "stateMutability": "view",
      "type": "function"
    },
    {
      "constant": true,
      "inputs": [],
      "name": "getAdmin",
      "outputs": [
        {
          "internalType": "address",
          "name": "",
          "type": "address"
        }
      ],
      "payable": false,
      "stateMutability": "view",
      "type": "function"
    },
    {
      "constant": false,
      "inputs": [
        {
          "internalType": "string",
          "name": "_name",
          "type": "string"
        },
        {
          "internalType": "string",
          "name": "_party",
          "type": "string"
        },
        {
          "internalType": "string",
          "name": "_info",
          "type": "string"
        }
      ],
      "name": "addCandidate",
      "outputs": [],
      "payable": false,
      "stateMutability": "nonpayable",
      "type": "function"
    },
    {
      "constant": true,
      "inputs": [],
      "name": "getCandidates",
      "outputs": [
        {
          "internalType": "string[]",
          "name": "",
          "type": "string[]"
        },
        {
          "internalType": "string[]",
          "name": "",
          "type": "string[]"
        },
        {
          "internalType": "string[]",
          "name": "",
          "type": "string[]"
        }
      ],
      "payable": false,
      "stateMutability": "view",
      "type": "function"
    },
    {
      "constant": false,
      "inputs": [],
      "name": "startVoting",
      "outputs": [],
      "payable": false,
      "stateMutability": "nonpayable",
      "type": "function"
    },
    {
      "constant": false,
      "inputs": [],
      "name": "endVoting",
      "outputs": [],
      "payable": false,
      "stateMutability": "nonpayable",
      "type": "function"
    },
    {
      "constant": false,
      "inputs": [
        {
          "internalType": "uint256",
          "name": "candidateId",
          "type": "uint256"
        }
      ],
      "name": "vote",
      "outputs": [],
      "payable": false,
      "stateMutability": "nonpayable",
      "type": "function"
    }
  ],
  "bytecode": "0x608060405234801561001057600080fd5b50600080556001805462010000330262010000600160b01b0319909116179055610fd18061003f6000396000f3fe608060405234801561001057600080fd5b50600436106100cf5760003560e01c80636e9960c31161008c578063ad71f8dc11610066578063ad71f8dc1461019a578063b9223946146101ad578063c3403ddf146101b5578063f851a440146101bd576100cf565b80636e9960c31461015d578063a87430ba14610172578063a9a981a314610185576100cf565b80630121b93f146100d457806306a49fce146100e95780631ec6b60a14610109578063321ca379146101115780633477ee2e146101355780634c0a6af014610148575b600080fd5b6100e76100e2366004610c7a565b6101c5565b005b6100f161027f565b60405161010093929190610d89565b60405180910390f35b6100e76105ad565b61012461011f366004610c7a565b6105d8565b604051610100959493929190610e48565b610124610143366004610c7a565b6107a7565b61015061083b565b6040516101009190610dcb565b610165610844565b6040516101009190610d7b565b610150610180366004610bc0565b61085a565b61018d61086f565b6040516101009190610dd9565b6100e76101a8366004610be6565b610875565b610150610a60565b6100e7610a6e565b610165610a98565b3360009081526004602052604090205460ff16156101e257600080fd5b6000811180156101f457506000548111155b6101fd57600080fd5b6001805460ff1615151461021057600080fd5b336000908152600460208181526040808420805460ff1916600190811790915585855260039092529283902090910180549091019055517f397e0eeb5aeede3e61c0ed9d8e9a5bee8126d1cb20128c70b503907d7736a71690610274908390610dd9565b60405180910390a150565b6060806060806002805490506040519080825280602002602001820160405280156102be57816020015b60608152602001906001900390816102a95790505b50905060606002805490506040519080825280602002602001820160405280156102fc57816020015b60608152602001906001900390816102e75790505b509050606060028054905060405190808252806020026020018201604052801561033a57816020015b60608152602001906001900390816103255790505b50905060005b6002548110156105a0576002818154811061035757fe5b90600052602060002090600502016001018054600181600116156101000203166002900480601f0160208091040260200160405190810160405280929190818152602001828054600181600116156101000203166002900480156103fc5780601f106103d1576101008083540402835291602001916103fc565b820191906000526020600020905b8154815290600101906020018083116103df57829003601f168201915b505050505084828151811061040d57fe5b60200260200101819052506002818154811061042557fe5b600091825260209182902060026005909202018101805460408051601f6000196101006001861615020190931694909404918201859004850284018501905280835291929091908301828280156104bd5780601f10610492576101008083540402835291602001916104bd565b820191906000526020600020905b8154815290600101906020018083116104a057829003601f168201915b50505050508382815181106104ce57fe5b6020026020010181905250600281815481106104e657fe5b6000918252602091829020600360059092020101805460408051601f600260001961010060018716150201909416939093049283018590048502810185019091528181529283018282801561057c5780601f106105515761010080835404028352916020019161057c565b820191906000526020600020905b81548152906001019060200180831161055f57829003601f168201915b505050505082828151811061058d57fe5b6020908102919091010152600101610340565b5091945092509050909192565b6001546201000090046001600160a01b031633146105ca57600080fd5b6001805460ff191681179055565b6003602090815260009182526040918290208054600180830180548651600293821615610100026000190190911692909204601f8101869004860283018601909652858252919492939092908301828280156106755780601f1061064a57610100808354040283529160200191610675565b820191906000526020600020905b81548152906001019060200180831161065857829003601f168201915b50505060028085018054604080516020601f60001961010060018716150201909416959095049283018590048502810185019091528181529596959450909250908301828280156107075780601f106106dc57610100808354040283529160200191610707565b820191906000526020600020905b8154815290600101906020018083116106ea57829003601f168201915b5050505060038301805460408051602060026001851615610100026000190190941693909304601f81018490048402820184019092528181529495949350908301828280156107975780601f1061076c57610100808354040283529160200191610797565b820191906000526020600020905b81548152906001019060200180831161077a57829003601f168201915b5050505050908060040154905085565b600281815481106107b457fe5b9060005260206000209060050201600091509050806000015490806001018054600181600116156101000203166002900480601f0160208091040260200160405190810160405280929190818152602001828054600181600116156101000203166002900480156106755780601f1061064a57610100808354040283529160200191610675565b60015460ff1681565b6001546201000090046001600160a01b03165b90565b60046020526000908152604090205460ff1681565b60005481565b6001546201000090046001600160a01b0316331461089257600080fd5b61089a610aad565b6040805160a081018252600080548083526020808401888152848601889052606085018790526080850184905291835260038152939091208251815590518051929391926108ee9260018501920190610ab8565b506040820151805161090a916002840191602090910190610ab8565b5060608201518051610926916003840191602090910190610ab8565b50608082015181600401559050507fb2ae204d1d8f1d363e9ab85f40a0846761ea0ae47b29a546aff7fd0242fa7ff4600054848484600060405161096e959493929190610de7565b60405180910390a16040805160a08101825260008054825260208083018781529383018690526060830185905260808301829052600280546001810180835591909352835160059093027f405787fa12a823e0f2b7631cc41b3ba8828b3321ca811111fa75cd3aa3bb5ace8101938455945180519195610a15937f405787fa12a823e0f2b7631cc41b3ba8828b3321ca811111fa75cd3aa3bb5acf90910192910190610ab8565b5060408201518051610a31916002840191602090910190610ab8565b5060608201518051610a4d916003840191602090910190610ab8565b5060808201518160040155505050505050565b600154610100900460ff1681565b6001546201000090046001600160a01b03163314610a8b57600080fd5b6001805461ff0019169055565b6001546201000090046001600160a01b031681565b600080546001019055565b828054600181600116156101000203166002900490600052602060002090601f016020900481019282601f10610af957805160ff1916838001178555610b26565b82800160010185558215610b26579182015b82811115610b26578251825591602001919060010190610b0b565b50610b32929150610b36565b5090565b61085791905b80821115610b325760008155600101610b3c565b8035610b5b81610f6e565b92915050565b600082601f830112610b7257600080fd5b8135610b85610b8082610ec6565b610e9f565b91508082526020830160208301858383011115610ba157600080fd5b610bac838284610f28565b50505092915050565b8035610b5b81610f85565b600060208284031215610bd257600080fd5b6000610bde8484610b50565b949350505050565b600080600060608486031215610bfb57600080fd5b833567ffffffffffffffff811115610c1257600080fd5b610c1e86828701610b61565b935050602084013567ffffffffffffffff811115610c3b57600080fd5b610c4786828701610b61565b925050604084013567ffffffffffffffff811115610c6457600080fd5b610c7086828701610b61565b9150509250925092565b600060208284031215610c8c57600080fd5b6000610bde8484610bb5565b6000610ca48383610d3a565b9392505050565b610cb481610f01565b82525050565b6000610cc582610ef4565b610ccf8185610ef8565b935083602082028501610ce185610eee565b8060005b85811015610d1b5784840389528151610cfe8582610c98565b9450610d0983610eee565b60209a909a0199925050600101610ce5565b5091979650505050505050565b610cb481610f0c565b610cb481610f1d565b6000610d4582610ef4565b610d4f8185610ef8565b9350610d5f818560208601610f34565b610d6881610f64565b9093019392505050565b610cb481610857565b60208101610b5b8284610cab565b60608082528101610d9a8186610cba565b90508181036020830152610dae8185610cba565b90508181036040830152610dc28184610cba565b95945050505050565b60208101610b5b8284610d28565b60208101610b5b8284610d72565b60a08101610df58288610d72565b8181036020830152610e078187610d3a565b90508181036040830152610e1b8186610d3a565b90508181036060830152610e2f8185610d3a565b9050610e3e6080830184610d31565b9695505050505050565b60a08101610e568288610d72565b8181036020830152610e688187610d3a565b90508181036040830152610e7c8186610d3a565b90508181036060830152610e908185610d3a565b9050610e3e6080830184610d72565b60405181810167ffffffffffffffff81118282101715610ebe57600080fd5b604052919050565b600067ffffffffffffffff821115610edd57600080fd5b506020601f91909101601f19160190565b60200190565b5190565b90815260200190565b6000610b5b82610f11565b151590565b6001600160a01b031690565b6000610b5b82610857565b82818337506000910152565b60005b83811015610f4f578181015183820152602001610f37565b83811115610f5e576000848401525b50505050565b601f01601f191690565b610f7781610f01565b8114610f8257600080fd5b50565b610f778161085756fea365627a7a723158208a8c8a4925217065c670dda11366d477d3f7cd0afc7b19f0a7726ca386edf3266c6578706572696d656e74616cf564736f6c63430005100040",
  "source": "pragma solidity ^0.5.0;\r\npragma experimental ABIEncoderV2;\r\n\r\ncontract Voting {\r\n\r\n    uint public candidateCount;\r\n    bool public startVote;\r\n    bool public endVote;\r\n    address public admin; \r\n    struct Candidate {\r\n        uint id;\r\n        string name;\r\n        string party;\r\n        string info;\r\n        uint voteCount;\r\n    }\r\n    struct Users{\r\n\r\n        uint vote;\r\n        bool voted;\r\n    }\r\n    Candidate[] public candidates;\r\n    mapping(uint => Candidate) public candidatesInfo;\r\n    mapping(address => bool) public users;  \r\n\r\n    constructor() public {\r\n        candidateCount = 0;\r\n        admin = msg.sender;\r\n    }\r\n    function getAdmin() public view returns (address) {\r\n        // Returns account address used to deploy contract (i.e. admin)\r\n        return admin;\r\n    }\r\n    modifier Admin() {\r\n    require(msg.sender == admin);\r\n    _;\r\n    }\r\n\r\n    event candidateAdded(uint id,string name,string party,string info,uint voteCount);\r\n\r\n    function addCandidate(string memory _name,string memory _party,string memory _info) public Admin{\r\n        incrementCount();\r\n        candidatesInfo[candidateCount] = Candidate({id:candidateCount, name: _name,party : _party,info : _info, voteCount: 0 });\r\n        emit candidateAdded(candidateCount, _name, _party,_info, 0);    \r\n        candidates.push(Candidate(candidateCount,_name, _party,_info,0));\r\n    }\r\n\r\n    \r\n    function getCandidates() public view returns (string[] memory, string[] memory,string[] memory) {\r\n        string[] memory candidateNames = new string[](candidates.length);\r\n        string[] memory candidateParties = new string[](candidates.length);\r\n        string[] memory candidatemessage = new string[](candidates.length);\r\n        \r\n        for (uint i = 0; i < candidates.length; i++) {\r\n            candidateNames[i] = candidates[i].name;\r\n            candidateParties[i] = candidates[i].party;\r\n            candidatemessage[i] = candidates[i].info;\r\n        }\r\n        \r\n        return (candidateNames, candidateParties,candidatemessage);\r\n    }\r\n    function incrementCount() internal{\r\n        candidateCount +=1;\r\n    }\r\n    function startVoting() public Admin {\r\n        startVote = true;\r\n    }\r\n    function endVoting() public  Admin{\r\n        endVote = false;\r\n    }\r\n\r\n    event userVoted(uint candidateId);\r\n\r\n    function vote(uint candidateId) public {\r\n        require(users[msg.sender] == false);\r\n        require(candidateId > 0 && candidateId <= candidateCount);\r\n        require(startVote == true);\r\n        //require(endVote == false);\r\n        users[msg.sender] = true;\r\n        candidatesInfo[candidateId].voteCount ++;\r\n        emit userVoted(candidateId);\r\n    }\r\n\r\n\r\n}\r\n",
  "sourcePath": "D:\\Sem2\\Advanced Internet Computing\\ProjectA5\\contracts\\Voting.sol",
  "compiler": {
    "name": "solc",
    "version": "0.5.16+commit.9c3226ce.Emscripten.clang"
  },
  "schemaVersion": "3.4.13",
  "updatedAt": "2023-05-21T19:12:44.432Z",
  "networkType": "ethereum",
  "devdoc": {
    "methods": {}
  },
  "userdoc": {
    "methods": {}
  }
}