{
  "contractName": "Voting",
  "abi": [
    {
      "inputs": [],
      "payable": false,
      "stateMutability": "nonpayable",
      "type": "constructor"
    },
    {
      "anonymous": false,
      "inputs": [
        {
          "indexed": false,
          "internalType": "uint256",
          "name": "id",
          "type": "uint256"
        },
        {
          "indexed": false,
          "internalType": "string",
          "name": "name",
          "type": "string"
        },
        {
          "indexed": false,
          "internalType": "string",
          "name": "party",
          "type": "string"
        },
        {
          "indexed": false,
          "internalType": "string",
          "name": "info",
          "type": "string"
        },
        {
          "indexed": false,
          "internalType": "uint256",
          "name": "voteCount",
          "type": "uint256"
        }
      ],
      "name": "candidateAdded",
      "type": "event"
    },
    {
      "anonymous": false,
      "inputs": [
        {
          "indexed": false,
          "internalType": "uint256",
          "name": "candidateId",
          "type": "uint256"
        }
      ],
      "name": "userVoted",
      "type": "event"
    },
    {
      "constant": true,
      "inputs": [],
      "name": "admin",
      "outputs": [
        {
          "internalType": "address",
          "name": "",
          "type": "address"
        }
      ],
      "payable": false,
      "stateMutability": "view",
      "type": "function"
    },
    {
      "constant": true,
      "inputs": [],
      "name": "candidateCount",
      "outputs": [
        {
          "internalType": "uint256",
          "name": "",
          "type": "uint256"
        }
      ],
      "payable": false,
      "stateMutability": "view",
      "type": "function"
    },
    {
      "constant": true,
      "inputs": [
        {
          "internalType": "uint256",
          "name": "",
          "type": "uint256"
        }
      ],
      "name": "candidates",
      "outputs": [
        {
          "internalType": "uint256",
          "name": "id",
          "type": "uint256"
        },
        {
          "internalType": "string",
          "name": "name",
          "type": "string"
        },
        {
          "internalType": "string",
          "name": "party",
          "type": "string"
        },
        {
          "internalType": "string",
          "name": "info",
          "type": "string"
        },
        {
          "internalType": "uint256",
          "name": "voteCount",
          "type": "uint256"
        }
      ],
      "payable": false,
      "stateMutability": "view",
      "type": "function"
    },
    {
      "constant": true,
      "inputs": [
        {
          "internalType": "uint256",
          "name": "",
          "type": "uint256"
        }
      ],
      "name": "candidatesInfo",
      "outputs": [
        {
          "internalType": "uint256",
          "name": "id",
          "type": "uint256"
        },
        {
          "internalType": "string",
          "name": "name",
          "type": "string"
        },
        {
          "internalType": "string",
          "name": "party",
          "type": "string"
        },
        {
          "internalType": "string",
          "name": "info",
          "type": "string"
        },
        {
          "internalType": "uint256",
          "name": "voteCount",
          "type": "uint256"
        }
      ],
      "payable": false,
      "stateMutability": "view",
      "type": "function"
    },
    {
      "constant": true,
      "inputs": [],
      "name": "endVote",
      "outputs": [
        {
          "internalType": "bool",
          "name": "",
          "type": "bool"
        }
      ],
      "payable": false,
      "stateMutability": "view",
      "type": "function"
    },
    {
      "constant": true,
      "inputs": [],
      "name": "startVote",
      "outputs": [
        {
          "internalType": "bool",
          "name": "",
          "type": "bool"
        }
      ],
      "payable": false,
      "stateMutability": "view",
      "type": "function"
    },
    {
      "constant": true,
      "inputs": [
        {
          "internalType": "address",
          "name": "",
          "type": "address"
        }
      ],
      "name": "users",
      "outputs": [
        {
          "internalType": "bool",
          "name": "",
          "type": "bool"
        }
      ],
      "payable": false,
      "stateMutability": "view",
      "type": "function"
    },
    {
      "constant": true,
      "inputs": [],
      "name": "getAdmin",
      "outputs": [
        {
          "internalType": "address",
          "name": "",
          "type": "address"
        }
      ],
      "payable": false,
      "stateMutability": "view",
      "type": "function"
    },
    {
      "constant": false,
      "inputs": [
        {
          "internalType": "string",
          "name": "_name",
          "type": "string"
        },
        {
          "internalType": "string",
          "name": "_party",
          "type": "string"
        },
        {
          "internalType": "string",
          "name": "_info",
          "type": "string"
        }
      ],
      "name": "addCandidate",
      "outputs": [],
      "payable": false,
      "stateMutability": "nonpayable",
      "type": "function"
    },
    {
      "constant": true,
      "inputs": [],
      "name": "getCandidates",
      "outputs": [
        {
          "internalType": "string[]",
          "name": "",
          "type": "string[]"
        },
        {
          "internalType": "string[]",
          "name": "",
          "type": "string[]"
        },
        {
          "internalType": "string[]",
          "name": "",
          "type": "string[]"
        }
      ],
      "payable": false,
      "stateMutability": "view",
      "type": "function"
    },
    {
      "constant": false,
      "inputs": [],
      "name": "startVoting",
      "outputs": [],
      "payable": false,
      "stateMutability": "nonpayable",
      "type": "function"
    },
    {
      "constant": false,
      "inputs": [],
      "name": "endVoting",
      "outputs": [],
      "payable": false,
      "stateMutability": "nonpayable",
      "type": "function"
    },
    {
      "constant": true,
      "inputs": [],
      "name": "hasVotingStarted",
      "outputs": [
        {
          "internalType": "bool",
          "name": "",
          "type": "bool"
        }
      ],
      "payable": false,
      "stateMutability": "view",
      "type": "function"
    },
    {
      "constant": false,
      "inputs": [
        {
          "internalType": "uint256",
          "name": "candidateId",
          "type": "uint256"
        }
      ],
      "name": "vote",
      "outputs": [],
      "payable": false,
      "stateMutability": "nonpayable",
      "type": "function"
    },
    {
      "constant": true,
      "inputs": [],
      "name": "getVotingStatus",
      "outputs": [
        {
          "internalType": "bool",
          "name": "",
          "type": "bool"
        }
      ],
      "payable": false,
      "stateMutability": "view",
      "type": "function"
    },
    {
      "constant": true,
      "inputs": [],
      "name": "getVoteCounts",
      "outputs": [
        {
          "internalType": "uint256[]",
          "name": "",
          "type": "uint256[]"
        }
      ],
      "payable": false,
      "stateMutability": "view",
      "type": "function"
    },
    {
      "constant": false,
      "inputs": [
        {
          "internalType": "address",
          "name": "user",
          "type": "address"
        }
      ],
      "name": "resetUser",
      "outputs": [],
      "payable": false,
      "stateMutability": "nonpayable",
      "type": "function"
    }
  ],
  "bytecode": "0x608060405234801561001057600080fd5b50600080556001805462010000330262010000600160b01b03199091161790556111d98061003f6000396000f3fe608060405234801561001057600080fd5b506004361061010b5760003560e01c8063581c281c116100a2578063ad71f8dc11610071578063ad71f8dc146101f9578063b92239461461020c578063c3403ddf14610214578063f851a4401461021c578063ffc97b20146102245761010b565b8063581c281c146101b45780636e9960c3146101bc578063a87430ba146101d1578063a9a981a3146101e45761010b565b8063321ca379116100de578063321ca37914610162578063343959b4146101865780633477ee2e146101995780634c0a6af0146101ac5761010b565b80630121b93f1461011057806306a49fce1461012557806318a1afc3146101455780631ec6b60a1461015a575b600080fd5b61012361011e366004610e04565b610239565b005b61012d610308565b60405161013c93929190610f80565b60405180910390f35b61014d610636565b60405161013c9190610fd3565b610123610640565b610175610170366004610e04565b610670565b60405161013c959493929190611050565b610123610194366004610d4a565b61083f565b6101756101a7366004610e04565b610889565b61014d61091d565b61014d610926565b6101c461093c565b60405161013c9190610f72565b61014d6101df366004610d4a565b610951565b6101ec610966565b60405161013c9190610fe1565b610123610207366004610d70565b61096c565b61014d610b57565b610123610b65565b6101c4610b93565b61022c610ba8565b60405161013c9190610fc2565b3360009081526004602052604090205460ff161561025657600080fd5b60008111801561026857506000548111155b61027157600080fd5b6001805460ff1615151461028457600080fd5b600154610100900460ff161561029957600080fd5b336000908152600460208181526040808420805460ff1916600190811790915585855260039092529283902090910180549091019055517f397e0eeb5aeede3e61c0ed9d8e9a5bee8126d1cb20128c70b503907d7736a716906102fd908390610fe1565b60405180910390a150565b60608060608060028054905060405190808252806020026020018201604052801561034757816020015b60608152602001906001900390816103325790505b509050606060028054905060405190808252806020026020018201604052801561038557816020015b60608152602001906001900390816103705790505b50905060606002805490506040519080825280602002602001820160405280156103c357816020015b60608152602001906001900390816103ae5790505b50905060005b60025481101561062957600281815481106103e057fe5b90600052602060002090600502016001018054600181600116156101000203166002900480601f0160208091040260200160405190810160405280929190818152602001828054600181600116156101000203166002900480156104855780601f1061045a57610100808354040283529160200191610485565b820191906000526020600020905b81548152906001019060200180831161046857829003601f168201915b505050505084828151811061049657fe5b6020026020010181905250600281815481106104ae57fe5b600091825260209182902060026005909202018101805460408051601f6000196101006001861615020190931694909404918201859004850284018501905280835291929091908301828280156105465780601f1061051b57610100808354040283529160200191610546565b820191906000526020600020905b81548152906001019060200180831161052957829003601f168201915b505050505083828151811061055757fe5b60200260200101819052506002818154811061056f57fe5b6000918252602091829020600360059092020101805460408051601f60026000196101006001871615020190941693909304928301859004850281018501909152818152928301828280156106055780601f106105da57610100808354040283529160200191610605565b820191906000526020600020905b8154815290600101906020018083116105e857829003601f168201915b505050505082828151811061061657fe5b60209081029190910101526001016103c9565b5091945092509050909192565b60015460ff165b90565b6001546201000090046001600160a01b0316331461065d57600080fd5b6001805460ff1916811761ff0019169055565b6003602090815260009182526040918290208054600180830180548651600293821615610100026000190190911692909204601f81018690048602830186019096528582529194929390929083018282801561070d5780601f106106e25761010080835404028352916020019161070d565b820191906000526020600020905b8154815290600101906020018083116106f057829003601f168201915b50505060028085018054604080516020601f600019610100600187161502019094169590950492830185900485028101850190915281815295969594509092509083018282801561079f5780601f106107745761010080835404028352916020019161079f565b820191906000526020600020905b81548152906001019060200180831161078257829003601f168201915b5050505060038301805460408051602060026001851615610100026000190190941693909304601f810184900484028201840190925281815294959493509083018282801561082f5780601f106108045761010080835404028352916020019161082f565b820191906000526020600020905b81548152906001019060200180831161081257829003601f168201915b5050505050908060040154905085565b6001546201000090046001600160a01b0316331461085c57600080fd5b6001600160a01b03166000908152600460205260409020805460ff19908116909155600180549091169055565b6002818154811061089657fe5b9060005260206000209060050201600091509050806000015490806001018054600181600116156101000203166002900480601f01602080910402602001604051908101604052809291908181526020018280546001816001161561010002031660029004801561070d5780601f106106e25761010080835404028352916020019161070d565b60015460ff1681565b3360009081526004602052604090205460ff1690565b6001546201000090046001600160a01b031690565b60046020526000908152604090205460ff1681565b60005481565b6001546201000090046001600160a01b0316331461098957600080fd5b6000805460019081018083556040805160a081018252828152602080820189815282840189905260608301889052608083018790529386526003815291909420845181559151805192936109e593908501929190910190610c42565b5060408201518051610a01916002840191602090910190610c42565b5060608201518051610a1d916003840191602090910190610c42565b50608082015181600401559050507fb2ae204d1d8f1d363e9ab85f40a0846761ea0ae47b29a546aff7fd0242fa7ff46000548484846000604051610a65959493929190610fef565b60405180910390a16040805160a08101825260008054825260208083018781529383018690526060830185905260808301829052600280546001810180835591909352835160059093027f405787fa12a823e0f2b7631cc41b3ba8828b3321ca811111fa75cd3aa3bb5ace8101938455945180519195610b0c937f405787fa12a823e0f2b7631cc41b3ba8828b3321ca811111fa75cd3aa3bb5acf90910192910190610c42565b5060408201518051610b28916002840191602090910190610c42565b5060608201518051610b44916003840191602090910190610c42565b5060808201518160040155505050505050565b600154610100900460ff1681565b6001546201000090046001600160a01b03163314610b8257600080fd5b6001805461ff001916610100179055565b6001546201000090046001600160a01b031681565b6001546060906201000090046001600160a01b03163314610bc857600080fd5b6060600054604051908082528060200260200182016040528015610bf6578160200160208202803883390190505b50905060015b6000548111610c3c57600081815260036020526040902060040154825183906000198401908110610c2957fe5b6020908102919091010152600101610bfc565b50905090565b828054600181600116156101000203166002900490600052602060002090601f016020900481019282601f10610c8357805160ff1916838001178555610cb0565b82800160010185558215610cb0579182015b82811115610cb0578251825591602001919060010190610c95565b50610cbc929150610cc0565b5090565b61063d91905b80821115610cbc5760008155600101610cc6565b8035610ce581611176565b92915050565b600082601f830112610cfc57600080fd5b8135610d0f610d0a826110ce565b6110a7565b91508082526020830160208301858383011115610d2b57600080fd5b610d36838284611130565b50505092915050565b8035610ce58161118d565b600060208284031215610d5c57600080fd5b6000610d688484610cda565b949350505050565b600080600060608486031215610d8557600080fd5b833567ffffffffffffffff811115610d9c57600080fd5b610da886828701610ceb565b935050602084013567ffffffffffffffff811115610dc557600080fd5b610dd186828701610ceb565b925050604084013567ffffffffffffffff811115610dee57600080fd5b610dfa86828701610ceb565b9150509250925092565b600060208284031215610e1657600080fd5b6000610d688484610d3f565b6000610e2e8383610f31565b9392505050565b6000610e418383610f69565b505060200190565b610e5281611109565b82525050565b6000610e63826110fc565b610e6d8185611100565b935083602082028501610e7f856110f6565b8060005b85811015610eb95784840389528151610e9c8582610e22565b9450610ea7836110f6565b60209a909a0199925050600101610e83565b5091979650505050505050565b6000610ed1826110fc565b610edb8185611100565b9350610ee6836110f6565b8060005b83811015610f14578151610efe8882610e35565b9750610f09836110f6565b925050600101610eea565b509495945050505050565b610e5281611114565b610e5281611125565b6000610f3c826110fc565b610f468185611100565b9350610f5681856020860161113c565b610f5f8161116c565b9093019392505050565b610e528161063d565b60208101610ce58284610e49565b60608082528101610f918186610e58565b90508181036020830152610fa58185610e58565b90508181036040830152610fb98184610e58565b95945050505050565b60208082528101610e2e8184610ec6565b60208101610ce58284610f1f565b60208101610ce58284610f69565b60a08101610ffd8288610f69565b818103602083015261100f8187610f31565b905081810360408301526110238186610f31565b905081810360608301526110378185610f31565b90506110466080830184610f28565b9695505050505050565b60a0810161105e8288610f69565b81810360208301526110708187610f31565b905081810360408301526110848186610f31565b905081810360608301526110988185610f31565b90506110466080830184610f69565b60405181810167ffffffffffffffff811182821017156110c657600080fd5b604052919050565b600067ffffffffffffffff8211156110e557600080fd5b506020601f91909101601f19160190565b60200190565b5190565b90815260200190565b6000610ce582611119565b151590565b6001600160a01b031690565b6000610ce58261063d565b82818337506000910152565b60005b8381101561115757818101518382015260200161113f565b83811115611166576000848401525b50505050565b601f01601f191690565b61117f81611109565b811461118a57600080fd5b50565b61117f8161063d56fea365627a7a72315820858c05276391b4810f5a927792163164da98bdebf9f5ebafe827ae068a07b68c6c6578706572696d656e74616cf564736f6c63430005100040",
  "source": "pragma solidity ^0.5.0;\r\npragma experimental ABIEncoderV2;\r\n\r\ncontract Voting {\r\n\r\n    uint public candidateCount;\r\n    bool public startVote;\r\n    bool public endVote;\r\n    address public admin; \r\n    struct Candidate {\r\n        uint id;\r\n        string name;\r\n        string party;\r\n        string info;\r\n        uint voteCount;\r\n    }\r\n    struct Users{\r\n\r\n        uint vote;\r\n        bool voted;\r\n    }\r\n    Candidate[] public candidates;\r\n    mapping(uint => Candidate) public candidatesInfo;\r\n    mapping(address => bool) public users;  \r\n\r\n    constructor() public {\r\n        candidateCount = 0;\r\n        admin = msg.sender;\r\n    }\r\n    function getAdmin() public view returns (address) {\r\n        // Returns account address used to deploy contract (i.e. admin)\r\n        return admin;\r\n    }\r\n    modifier Admin() {\r\n    require(msg.sender == admin);\r\n    _;\r\n    }\r\n\r\n    event candidateAdded(uint id,string name,string party,string info,uint voteCount);\r\n\r\n    function addCandidate(string memory _name,string memory _party,string memory _info) public Admin{\r\n        candidateCount +=1;\r\n        candidatesInfo[candidateCount] = Candidate({id:candidateCount, name: _name,party : _party,info : _info, voteCount: 0 });\r\n        emit candidateAdded(candidateCount, _name, _party,_info, 0);    \r\n        candidates.push(Candidate(candidateCount,_name, _party,_info,0));\r\n    }\r\n\r\n    \r\n    function getCandidates() public view returns (string[] memory, string[] memory,string[] memory) {\r\n        string[] memory candidateNames = new string[](candidates.length);\r\n        string[] memory candidateParties = new string[](candidates.length);\r\n        string[] memory candidatemessage = new string[](candidates.length);\r\n        \r\n        for (uint i = 0; i < candidates.length; i++) {\r\n            candidateNames[i] = candidates[i].name;\r\n            candidateParties[i] = candidates[i].party;\r\n            candidatemessage[i] = candidates[i].info;\r\n        }\r\n        \r\n        return (candidateNames, candidateParties,candidatemessage);\r\n    }\r\n\r\n    function startVoting() public Admin {\r\n        startVote = true;\r\n        endVote = false;\r\n    }\r\n    function endVoting() public  Admin{\r\n        endVote = true;\r\n    }\r\n\r\n    function hasVotingStarted() public view returns (bool) {\r\n        return startVote;\r\n    }\r\n\r\n    event userVoted(uint candidateId);\r\n\r\n    function vote(uint candidateId) public {\r\n        require(users[msg.sender] == false);\r\n        require(candidateId > 0 && candidateId <= candidateCount);\r\n        require(startVote == true);\r\n        require(endVote == false);\r\n        users[msg.sender] = true;\r\n        candidatesInfo[candidateId].voteCount ++;\r\n        emit userVoted(candidateId);\r\n    }\r\n\r\n    function getVotingStatus() public view returns (bool) {\r\n        return users[msg.sender];\r\n    }\r\n\r\n    function getVoteCounts() public view Admin returns (uint[] memory) {\r\n        uint[] memory voteCounts = new uint[](candidateCount);\r\n        \r\n        for (uint i = 1; i <= candidateCount; i++) {\r\n            voteCounts[i-1] = candidatesInfo[i].voteCount;\r\n    }\r\n    \r\n    return voteCounts;\r\n    }\r\n\r\n    function resetUser(address user) public Admin {\r\n        users[user] = false;\r\n        startVote = false;\r\n    }\r\n\r\n}\r\n",
  "sourcePath": "D:\\Sem2\\Advanced Internet Computing\\New\\contracts\\Voting.sol",
  "compiler": {
    "name": "solc",
    "version": "0.5.16+commit.9c3226ce.Emscripten.clang"
  },
  "schemaVersion": "3.4.13",
  "updatedAt": "2023-06-23T13:46:31.816Z",
  "networkType": "ethereum",
  "devdoc": {
    "methods": {}
  },
  "userdoc": {
    "methods": {}
  }
}