{
  "contractName": "Voting",
  "abi": [
    {
      "constant": true,
      "inputs": [
        {
          "name": "",
          "type": "uint256"
        }
      ],
      "name": "candidatesInfo",
      "outputs": [
        {
          "name": "id",
          "type": "uint256"
        },
        {
          "name": "name",
          "type": "string"
        },
        {
          "name": "party",
          "type": "string"
        },
        {
          "name": "info",
          "type": "string"
        },
        {
          "name": "voteCount",
          "type": "uint256"
        }
      ],
      "payable": false,
      "stateMutability": "view",
      "type": "function",
      "signature": "0x321ca379"
    },
    {
      "constant": true,
      "inputs": [
        {
          "name": "",
          "type": "uint256"
        }
      ],
      "name": "candidates",
      "outputs": [
        {
          "name": "id",
          "type": "uint256"
        },
        {
          "name": "name",
          "type": "string"
        },
        {
          "name": "party",
          "type": "string"
        },
        {
          "name": "info",
          "type": "string"
        },
        {
          "name": "voteCount",
          "type": "uint256"
        }
      ],
      "payable": false,
      "stateMutability": "view",
      "type": "function",
      "signature": "0x3477ee2e"
    },
    {
      "constant": true,
      "inputs": [],
      "name": "startVote",
      "outputs": [
        {
          "name": "",
          "type": "bool"
        }
      ],
      "payable": false,
      "stateMutability": "view",
      "type": "function",
      "signature": "0x4c0a6af0"
    },
    {
      "constant": true,
      "inputs": [
        {
          "name": "",
          "type": "address"
        }
      ],
      "name": "users",
      "outputs": [
        {
          "name": "",
          "type": "bool"
        }
      ],
      "payable": false,
      "stateMutability": "view",
      "type": "function",
      "signature": "0xa87430ba"
    },
    {
      "constant": true,
      "inputs": [],
      "name": "candidateCount",
      "outputs": [
        {
          "name": "",
          "type": "uint256"
        }
      ],
      "payable": false,
      "stateMutability": "view",
      "type": "function",
      "signature": "0xa9a981a3"
    },
    {
      "constant": true,
      "inputs": [],
      "name": "endVote",
      "outputs": [
        {
          "name": "",
          "type": "bool"
        }
      ],
      "payable": false,
      "stateMutability": "view",
      "type": "function",
      "signature": "0xb9223946"
    },
    {
      "constant": true,
      "inputs": [],
      "name": "admin",
      "outputs": [
        {
          "name": "",
          "type": "address"
        }
      ],
      "payable": false,
      "stateMutability": "view",
      "type": "function",
      "signature": "0xf851a440"
    },
    {
      "inputs": [],
      "payable": false,
      "stateMutability": "nonpayable",
      "type": "constructor",
      "signature": "constructor"
    },
    {
      "anonymous": false,
      "inputs": [
        {
          "indexed": false,
          "name": "id",
          "type": "uint256"
        },
        {
          "indexed": false,
          "name": "name",
          "type": "string"
        },
        {
          "indexed": false,
          "name": "party",
          "type": "string"
        },
        {
          "indexed": false,
          "name": "info",
          "type": "string"
        },
        {
          "indexed": false,
          "name": "voteCount",
          "type": "uint256"
        }
      ],
      "name": "candidateAdded",
      "type": "event",
      "signature": "0xb2ae204d1d8f1d363e9ab85f40a0846761ea0ae47b29a546aff7fd0242fa7ff4"
    },
    {
      "anonymous": false,
      "inputs": [
        {
          "indexed": false,
          "name": "candidateId",
          "type": "uint256"
        }
      ],
      "name": "userVoted",
      "type": "event",
      "signature": "0x397e0eeb5aeede3e61c0ed9d8e9a5bee8126d1cb20128c70b503907d7736a716"
    },
    {
      "constant": true,
      "inputs": [],
      "name": "getAdmin",
      "outputs": [
        {
          "name": "",
          "type": "address"
        }
      ],
      "payable": false,
      "stateMutability": "view",
      "type": "function",
      "signature": "0x6e9960c3"
    },
    {
      "constant": false,
      "inputs": [
        {
          "name": "_name",
          "type": "string"
        },
        {
          "name": "_party",
          "type": "string"
        },
        {
          "name": "_info",
          "type": "string"
        }
      ],
      "name": "addCandidate",
      "outputs": [],
      "payable": false,
      "stateMutability": "nonpayable",
      "type": "function",
      "signature": "0xad71f8dc"
    },
    {
      "constant": true,
      "inputs": [],
      "name": "getCandidates",
      "outputs": [
        {
          "name": "",
          "type": "string[]"
        },
        {
          "name": "",
          "type": "string[]"
        },
        {
          "name": "",
          "type": "string[]"
        }
      ],
      "payable": false,
      "stateMutability": "view",
      "type": "function",
      "signature": "0x06a49fce"
    },
    {
      "constant": false,
      "inputs": [],
      "name": "startVoting",
      "outputs": [],
      "payable": false,
      "stateMutability": "nonpayable",
      "type": "function",
      "signature": "0x1ec6b60a"
    },
    {
      "constant": false,
      "inputs": [],
      "name": "endVoting",
      "outputs": [],
      "payable": false,
      "stateMutability": "nonpayable",
      "type": "function",
      "signature": "0xc3403ddf"
    },
    {
      "constant": false,
      "inputs": [
        {
          "name": "candidateId",
          "type": "uint256"
        }
      ],
      "name": "vote",
      "outputs": [],
      "payable": false,
      "stateMutability": "nonpayable",
      "type": "function",
      "signature": "0x0121b93f"
    },
    {
      "constant": true,
      "inputs": [],
      "name": "getVoteCounts",
      "outputs": [
        {
          "name": "",
          "type": "uint256[]"
        }
      ],
      "payable": false,
      "stateMutability": "view",
      "type": "function",
      "signature": "0xffc97b20"
    }
  ],
  "bytecode": "0x608060405234801561001057600080fd5b5060008055600180546201000033026201000060b060020a031990911617905561118f8061003f6000396000f3fe6080604052600436106100cf5763ffffffff7c01000000000000000000000000000000000000000000000000000000006000350416630121b93f81146100d457806306a49fce146100f65780631ec6b60a14610123578063321ca379146101385780633477ee2e146101695780634c0a6af0146101895780636e9960c3146101ab578063a87430ba146101cd578063a9a981a3146101ed578063ad71f8dc1461020f578063b92239461461022f578063c3403ddf14610244578063f851a44014610259578063ffc97b201461026e575b600080fd5b3480156100e057600080fd5b506100f46100ef366004610e0c565b610290565b005b34801561010257600080fd5b5061010b61034c565b60405161011a93929190610f5b565b60405180910390f35b34801561012f57600080fd5b506100f4610680565b34801561014457600080fd5b50610158610153366004610e0c565b6106b8565b60405161011a95949392919061102b565b34801561017557600080fd5b50610158610184366004610e0c565b610887565b34801561019557600080fd5b5061019e61091c565b60405161011a9190610fae565b3480156101b757600080fd5b506101c0610925565b60405161011a9190610f47565b3480156101d957600080fd5b5061019e6101e8366004610d52565b610948565b3480156101f957600080fd5b5061020261095d565b60405161011a9190610fbc565b34801561021b57600080fd5b506100f461022a366004610d78565b610963565b34801561023b57600080fd5b5061019e610b5b565b34801561025057600080fd5b506100f4610b69565b34801561026557600080fd5b506101c0610ba0565b34801561027a57600080fd5b50610283610bc2565b60405161011a9190610f9d565b3360009081526004602052604090205460ff16156102ad57600080fd5b6000811180156102bf57506000548111155b15156102ca57600080fd5b6001805460ff161515146102dd57600080fd5b336000908152600460208181526040808420805460ff1916600190811790915585855260039092529283902090910180549091019055517f397e0eeb5aeede3e61c0ed9d8e9a5bee8126d1cb20128c70b503907d7736a71690610341908390610fbc565b60405180910390a150565b60608060608060028054905060405190808252806020026020018201604052801561038b57816020015b60608152602001906001900390816103765790505b50905060606002805490506040519080825280602002602001820160405280156103c957816020015b60608152602001906001900390816103b45790505b509050606060028054905060405190808252806020026020018201604052801561040757816020015b60608152602001906001900390816103f25790505b50905060005b60025481101561067357600280548290811061042557fe5b90600052602060002090600502016001018054600181600116156101000203166002900480601f0160208091040260200160405190810160405280929190818152602001828054600181600116156101000203166002900480156104ca5780601f1061049f576101008083540402835291602001916104ca565b820191906000526020600020905b8154815290600101906020018083116104ad57829003601f168201915b505050505084828151811015156104dd57fe5b6020908102909101015260028054829081106104f557fe5b600091825260209182902060026005909202018101805460408051601f60001961010060018616150201909316949094049182018590048502840185019052808352919290919083018282801561058d5780601f106105625761010080835404028352916020019161058d565b820191906000526020600020905b81548152906001019060200180831161057057829003601f168201915b505050505083828151811015156105a057fe5b6020908102909101015260028054829081106105b857fe5b6000918252602091829020600360059092020101805460408051601f600260001961010060018716150201909416939093049283018590048502810185019091528181529283018282801561064e5780601f106106235761010080835404028352916020019161064e565b820191906000526020600020905b81548152906001019060200180831161063157829003601f168201915b5050505050828281518110151561066157fe5b6020908102909101015260010161040d565b5091945092509050909192565b60015462010000900473ffffffffffffffffffffffffffffffffffffffff1633146106aa57600080fd5b6001805460ff191681179055565b6003602090815260009182526040918290208054600180830180548651600293821615610100026000190190911692909204601f8101869004860283018601909652858252919492939092908301828280156107555780601f1061072a57610100808354040283529160200191610755565b820191906000526020600020905b81548152906001019060200180831161073857829003601f168201915b50505060028085018054604080516020601f60001961010060018716150201909416959095049283018590048502810185019091528181529596959450909250908301828280156107e75780601f106107bc576101008083540402835291602001916107e7565b820191906000526020600020905b8154815290600101906020018083116107ca57829003601f168201915b5050505060038301805460408051602060026001851615610100026000190190941693909304601f81018490048402820184019092528181529495949350908301828280156108775780601f1061084c57610100808354040283529160200191610877565b820191906000526020600020905b81548152906001019060200180831161085a57829003601f168201915b5050505050908060040154905085565b600280548290811061089557fe5b9060005260206000209060050201600091509050806000015490806001018054600181600116156101000203166002900480601f0160208091040260200160405190810160405280929190818152602001828054600181600116156101000203166002900480156107555780601f1061072a57610100808354040283529160200191610755565b60015460ff1681565b60015462010000900473ffffffffffffffffffffffffffffffffffffffff165b90565b60046020526000908152604090205460ff1681565b60005481565b60015462010000900473ffffffffffffffffffffffffffffffffffffffff16331461098d57600080fd5b610995610c3c565b6040805160a081018252600080548083526020808401888152848601889052606085018790526080850184905291835260038152939091208251815590518051929391926109e99260018501920190610c47565b5060408201518051610a05916002840191602090910190610c47565b5060608201518051610a21916003840191602090910190610c47565b50608082015181600401559050507fb2ae204d1d8f1d363e9ab85f40a0846761ea0ae47b29a546aff7fd0242fa7ff46000548484846000604051610a69959493929190610fca565b60405180910390a16040805160a08101825260008054825260208083018781529383018690526060830185905260808301829052600280546001810180835591909352835160059093027f405787fa12a823e0f2b7631cc41b3ba8828b3321ca811111fa75cd3aa3bb5ace8101938455945180519195610b10937f405787fa12a823e0f2b7631cc41b3ba8828b3321ca811111fa75cd3aa3bb5acf90910192910190610c47565b5060408201518051610b2c916002840191602090910190610c47565b5060608201518051610b48916003840191602090910190610c47565b5060808201518160040155505050505050565b600154610100900460ff1681565b60015462010000900473ffffffffffffffffffffffffffffffffffffffff163314610b9357600080fd5b6001805461ff0019169055565b60015462010000900473ffffffffffffffffffffffffffffffffffffffff1681565b606080600054604051908082528060200260200182016040528015610bf1578160200160208202803883390190505b50905060015b6000548111610c3657600081815260036020526040902060040154825183906000198401908110610c2457fe5b60209081029091010152600101610bf7565b50905090565b600080546001019055565b828054600181600116156101000203166002900490600052602060002090601f016020900481019282601f10610c8857805160ff1916838001178555610cb5565b82800160010185558215610cb5579182015b82811115610cb5578251825591602001919060010190610c9a565b50610cc1929150610cc5565b5090565b61094591905b80821115610cc15760008155600101610ccb565b6000610ceb82356110db565b9392505050565b6000601f82018313610d0357600080fd5b8135610d16610d11826110a9565b611082565b91508082526020830160208301858383011115610d3257600080fd5b610d3d83828461110f565b50505092915050565b6000610ceb8235610945565b600060208284031215610d6457600080fd5b6000610d708484610cdf565b949350505050565b600080600060608486031215610d8d57600080fd5b833567ffffffffffffffff811115610da457600080fd5b610db086828701610cf2565b935050602084013567ffffffffffffffff811115610dcd57600080fd5b610dd986828701610cf2565b925050604084013567ffffffffffffffff811115610df657600080fd5b610e0286828701610cf2565b9150509250925092565b600060208284031215610e1e57600080fd5b6000610d708484610d46565b610e33816110db565b82525050565b6000610e44826110d7565b80845260208401935083602082028501610e5d856110d1565b60005b84811015610e94578383038852610e78838351610f09565b9250610e83826110d1565b602098909801979150600101610e60565b50909695505050505050565b6000610eab826110d7565b808452602084019350610ebd836110d1565b60005b82811015610eed57610ed3868351610f3e565b610edc826110d1565b602096909601959150600101610ec0565b5093949350505050565b610e33816110e6565b610e3381611104565b6000610f14826110d7565b808452610f2881602086016020860161111b565b610f318161114b565b9093016020019392505050565b610e3381610945565b60208101610f558284610e2a565b92915050565b60608082528101610f6c8186610e39565b90508181036020830152610f808185610e39565b90508181036040830152610f948184610e39565b95945050505050565b60208082528101610ceb8184610ea0565b60208101610f558284610ef7565b60208101610f558284610f3e565b60a08101610fd88288610f3e565b8181036020830152610fea8187610f09565b90508181036040830152610ffe8186610f09565b905081810360608301526110128185610f09565b90506110216080830184610f00565b9695505050505050565b60a081016110398288610f3e565b818103602083015261104b8187610f09565b9050818103604083015261105f8186610f09565b905081810360608301526110738185610f09565b90506110216080830184610f3e565b60405181810167ffffffffffffffff811182821017156110a157600080fd5b604052919050565b600067ffffffffffffffff8211156110c057600080fd5b506020601f91909101601f19160190565b60200190565b5190565b6000610f55826110eb565b151590565b73ffffffffffffffffffffffffffffffffffffffff1690565b6000610f5582610945565b82818337506000910152565b60005b8381101561113657818101518382015260200161111e565b83811115611145576000848401525b50505050565b601f01601f19169056fea265627a7a723058209590fd79d7bbfe25ed16ede595e0a4e1f15a53c9da4db80d32c65038f5eafadb6c6578706572696d656e74616cf50037",
  "source": "pragma solidity ^0.5.0;\r\npragma experimental ABIEncoderV2;\r\n\r\ncontract Voting {\r\n\r\n    uint public candidateCount;\r\n    bool public startVote;\r\n    bool public endVote;\r\n    address public admin; \r\n    struct Candidate {\r\n        uint id;\r\n        string name;\r\n        string party;\r\n        string info;\r\n        uint voteCount;\r\n    }\r\n    struct Users{\r\n\r\n        uint vote;\r\n        bool voted;\r\n    }\r\n    Candidate[] public candidates;\r\n    mapping(uint => Candidate) public candidatesInfo;\r\n    mapping(address => bool) public users;  \r\n\r\n    constructor() public {\r\n        candidateCount = 0;\r\n        admin = msg.sender;\r\n    }\r\n    function getAdmin() public view returns (address) {\r\n        // Returns account address used to deploy contract (i.e. admin)\r\n        return admin;\r\n    }\r\n    modifier Admin() {\r\n    require(msg.sender == admin);\r\n    _;\r\n    }\r\n\r\n    event candidateAdded(uint id,string name,string party,string info,uint voteCount);\r\n\r\n    function addCandidate(string memory _name,string memory _party,string memory _info) public Admin{\r\n        incrementCount();\r\n        candidatesInfo[candidateCount] = Candidate({id:candidateCount, name: _name,party : _party,info : _info, voteCount: 0 });\r\n        emit candidateAdded(candidateCount, _name, _party,_info, 0);    \r\n        candidates.push(Candidate(candidateCount,_name, _party,_info,0));\r\n    }\r\n\r\n    \r\n    function getCandidates() public view returns (string[] memory, string[] memory,string[] memory) {\r\n        string[] memory candidateNames = new string[](candidates.length);\r\n        string[] memory candidateParties = new string[](candidates.length);\r\n        string[] memory candidatemessage = new string[](candidates.length);\r\n        \r\n        for (uint i = 0; i < candidates.length; i++) {\r\n            candidateNames[i] = candidates[i].name;\r\n            candidateParties[i] = candidates[i].party;\r\n            candidatemessage[i] = candidates[i].info;\r\n        }\r\n        \r\n        return (candidateNames, candidateParties,candidatemessage);\r\n    }\r\n    function incrementCount() internal{\r\n        candidateCount +=1;\r\n    }\r\n    function startVoting() public Admin {\r\n        startVote = true;\r\n    }\r\n    function endVoting() public  Admin{\r\n        endVote = false;\r\n    }\r\n\r\n    event userVoted(uint candidateId);\r\n\r\n    function vote(uint candidateId) public {\r\n        require(users[msg.sender] == false);\r\n        require(candidateId > 0 && candidateId <= candidateCount);\r\n        require(startVote == true);\r\n        //require(endVote == false);\r\n        users[msg.sender] = true;\r\n        candidatesInfo[candidateId].voteCount ++;\r\n        emit userVoted(candidateId);\r\n    }\r\nfunction getVoteCounts() public view returns (uint[] memory) {\r\n    uint[] memory voteCounts = new uint[](candidateCount);\r\n    \r\n    for (uint i = 1; i <= candidateCount; i++) {\r\n        voteCounts[i-1] = candidatesInfo[i].voteCount;\r\n    }\r\n    \r\n    return voteCounts;\r\n}\r\n\r\n\r\n}\r\n",
  "sourcePath": "D:/TUHH_ICS/Sem3_SS23/Advanced Internet Computing/PBL/AIC-A5/contracts/Voting.sol",
  "compiler": {
    "name": "solc",
    "version": "0.5.0+commit.1d4f565a.Emscripten.clang"
  },
  "schemaVersion": "3.0.1",
  "updatedAt": "2023-06-03T17:47:13.933Z",
  "devdoc": {
    "methods": {}
  },
  "userdoc": {
    "methods": {}
  }
}