{
  "contractName": "Voting",
  "abi": [
    {
      "constant": true,
      "inputs": [
        {
          "name": "",
          "type": "uint256"
        }
      ],
      "name": "candidatesInfo",
      "outputs": [
        {
          "name": "id",
          "type": "uint256"
        },
        {
          "name": "name",
          "type": "string"
        },
        {
          "name": "party",
          "type": "string"
        },
        {
          "name": "info",
          "type": "string"
        },
        {
          "name": "voteCount",
          "type": "uint256"
        }
      ],
      "payable": false,
      "stateMutability": "view",
      "type": "function",
      "signature": "0x321ca379"
    },
    {
      "constant": true,
      "inputs": [
        {
          "name": "",
          "type": "uint256"
        }
      ],
      "name": "candidates",
      "outputs": [
        {
          "name": "id",
          "type": "uint256"
        },
        {
          "name": "name",
          "type": "string"
        },
        {
          "name": "party",
          "type": "string"
        },
        {
          "name": "info",
          "type": "string"
        },
        {
          "name": "voteCount",
          "type": "uint256"
        }
      ],
      "payable": false,
      "stateMutability": "view",
      "type": "function",
      "signature": "0x3477ee2e"
    },
    {
      "constant": true,
      "inputs": [],
      "name": "startVote",
      "outputs": [
        {
          "name": "",
          "type": "bool"
        }
      ],
      "payable": false,
      "stateMutability": "view",
      "type": "function",
      "signature": "0x4c0a6af0"
    },
    {
      "constant": true,
      "inputs": [
        {
          "name": "",
          "type": "address"
        }
      ],
      "name": "users",
      "outputs": [
        {
          "name": "",
          "type": "bool"
        }
      ],
      "payable": false,
      "stateMutability": "view",
      "type": "function",
      "signature": "0xa87430ba"
    },
    {
      "constant": true,
      "inputs": [],
      "name": "candidateCount",
      "outputs": [
        {
          "name": "",
          "type": "uint256"
        }
      ],
      "payable": false,
      "stateMutability": "view",
      "type": "function",
      "signature": "0xa9a981a3"
    },
    {
      "constant": true,
      "inputs": [],
      "name": "endVote",
      "outputs": [
        {
          "name": "",
          "type": "bool"
        }
      ],
      "payable": false,
      "stateMutability": "view",
      "type": "function",
      "signature": "0xb9223946"
    },
    {
      "constant": true,
      "inputs": [],
      "name": "admin",
      "outputs": [
        {
          "name": "",
          "type": "address"
        }
      ],
      "payable": false,
      "stateMutability": "view",
      "type": "function",
      "signature": "0xf851a440"
    },
    {
      "inputs": [],
      "payable": false,
      "stateMutability": "nonpayable",
      "type": "constructor",
      "signature": "constructor"
    },
    {
      "anonymous": false,
      "inputs": [
        {
          "indexed": false,
          "name": "id",
          "type": "uint256"
        },
        {
          "indexed": false,
          "name": "name",
          "type": "string"
        },
        {
          "indexed": false,
          "name": "party",
          "type": "string"
        },
        {
          "indexed": false,
          "name": "info",
          "type": "string"
        },
        {
          "indexed": false,
          "name": "voteCount",
          "type": "uint256"
        }
      ],
      "name": "candidateAdded",
      "type": "event",
      "signature": "0xb2ae204d1d8f1d363e9ab85f40a0846761ea0ae47b29a546aff7fd0242fa7ff4"
    },
    {
      "anonymous": false,
      "inputs": [
        {
          "indexed": false,
          "name": "candidateId",
          "type": "uint256"
        }
      ],
      "name": "userVoted",
      "type": "event",
      "signature": "0x397e0eeb5aeede3e61c0ed9d8e9a5bee8126d1cb20128c70b503907d7736a716"
    },
    {
      "constant": true,
      "inputs": [],
      "name": "getAdmin",
      "outputs": [
        {
          "name": "",
          "type": "address"
        }
      ],
      "payable": false,
      "stateMutability": "view",
      "type": "function",
      "signature": "0x6e9960c3"
    },
    {
      "constant": false,
      "inputs": [
        {
          "name": "_name",
          "type": "string"
        },
        {
          "name": "_party",
          "type": "string"
        },
        {
          "name": "_info",
          "type": "string"
        }
      ],
      "name": "addCandidate",
      "outputs": [],
      "payable": false,
      "stateMutability": "nonpayable",
      "type": "function",
      "signature": "0xad71f8dc"
    },
    {
      "constant": true,
      "inputs": [],
      "name": "getCandidates",
      "outputs": [
        {
          "name": "",
          "type": "string[]"
        },
        {
          "name": "",
          "type": "string[]"
        },
        {
          "name": "",
          "type": "string[]"
        }
      ],
      "payable": false,
      "stateMutability": "view",
      "type": "function",
      "signature": "0x06a49fce"
    },
    {
      "constant": false,
      "inputs": [],
      "name": "startVoting",
      "outputs": [],
      "payable": false,
      "stateMutability": "nonpayable",
      "type": "function",
      "signature": "0x1ec6b60a"
    },
    {
      "constant": false,
      "inputs": [],
      "name": "endVoting",
      "outputs": [],
      "payable": false,
      "stateMutability": "nonpayable",
      "type": "function",
      "signature": "0xc3403ddf"
    },
    {
      "constant": true,
      "inputs": [],
      "name": "hasVotingStarted",
      "outputs": [
        {
          "name": "",
          "type": "bool"
        }
      ],
      "payable": false,
      "stateMutability": "view",
      "type": "function",
      "signature": "0x18a1afc3"
    },
    {
      "constant": false,
      "inputs": [
        {
          "name": "candidateId",
          "type": "uint256"
        }
      ],
      "name": "vote",
      "outputs": [],
      "payable": false,
      "stateMutability": "nonpayable",
      "type": "function",
      "signature": "0x0121b93f"
    },
    {
      "constant": true,
      "inputs": [],
      "name": "getVoteCounts",
      "outputs": [
        {
          "name": "",
          "type": "uint256[]"
        }
      ],
      "payable": false,
      "stateMutability": "view",
      "type": "function",
      "signature": "0xffc97b20"
    }
  ],
  "bytecode": "0x608060405234801561001057600080fd5b5060008055600180546201000033026201000060b060020a03199091161790556111dc8061003f6000396000f3fe6080604052600436106100da5763ffffffff7c01000000000000000000000000000000000000000000000000000000006000350416630121b93f81146100df57806306a49fce1461010157806318a1afc31461012e5780631ec6b60a14610150578063321ca379146101655780633477ee2e146101965780634c0a6af0146101b65780636e9960c3146101cb578063a87430ba146101ed578063a9a981a31461020d578063ad71f8dc1461022f578063b92239461461024f578063c3403ddf14610264578063f851a44014610279578063ffc97b201461028e575b600080fd5b3480156100eb57600080fd5b506100ff6100fa366004610e59565b6102b0565b005b34801561010d57600080fd5b50610116610381565b60405161012593929190610fa8565b60405180910390f35b34801561013a57600080fd5b506101436106b5565b6040516101259190610ffb565b34801561015c57600080fd5b506100ff6106bf565b34801561017157600080fd5b50610185610180366004610e59565b6106fc565b604051610125959493929190611078565b3480156101a257600080fd5b506101856101b1366004610e59565b6108cb565b3480156101c257600080fd5b50610143610960565b3480156101d757600080fd5b506101e0610969565b6040516101259190610f94565b3480156101f957600080fd5b50610143610208366004610d9f565b61098b565b34801561021957600080fd5b506102226109a0565b6040516101259190611009565b34801561023b57600080fd5b506100ff61024a366004610dc5565b6109a6565b34801561025b57600080fd5b50610143610b9e565b34801561027057600080fd5b506100ff610bac565b34801561028557600080fd5b506101e0610bed565b34801561029a57600080fd5b506102a3610c0f565b6040516101259190610fea565b3360009081526004602052604090205460ff16156102cd57600080fd5b6000811180156102df57506000548111155b15156102ea57600080fd5b6001805460ff161515146102fd57600080fd5b600154610100900460ff161561031257600080fd5b336000908152600460208181526040808420805460ff1916600190811790915585855260039092529283902090910180549091019055517f397e0eeb5aeede3e61c0ed9d8e9a5bee8126d1cb20128c70b503907d7736a71690610376908390611009565b60405180910390a150565b6060806060806002805490506040519080825280602002602001820160405280156103c057816020015b60608152602001906001900390816103ab5790505b50905060606002805490506040519080825280602002602001820160405280156103fe57816020015b60608152602001906001900390816103e95790505b509050606060028054905060405190808252806020026020018201604052801561043c57816020015b60608152602001906001900390816104275790505b50905060005b6002548110156106a857600280548290811061045a57fe5b90600052602060002090600502016001018054600181600116156101000203166002900480601f0160208091040260200160405190810160405280929190818152602001828054600181600116156101000203166002900480156104ff5780601f106104d4576101008083540402835291602001916104ff565b820191906000526020600020905b8154815290600101906020018083116104e257829003601f168201915b5050505050848281518110151561051257fe5b60209081029091010152600280548290811061052a57fe5b600091825260209182902060026005909202018101805460408051601f6000196101006001861615020190931694909404918201859004850284018501905280835291929091908301828280156105c25780601f10610597576101008083540402835291602001916105c2565b820191906000526020600020905b8154815290600101906020018083116105a557829003601f168201915b505050505083828151811015156105d557fe5b6020908102909101015260028054829081106105ed57fe5b6000918252602091829020600360059092020101805460408051601f60026000196101006001871615020190941693909304928301859004850281018501909152818152928301828280156106835780601f1061065857610100808354040283529160200191610683565b820191906000526020600020905b81548152906001019060200180831161066657829003601f168201915b5050505050828281518110151561069657fe5b60209081029091010152600101610442565b5091945092509050909192565b60015460ff165b90565b60015462010000900473ffffffffffffffffffffffffffffffffffffffff1633146106e957600080fd5b6001805460ff1916811761ff0019169055565b6003602090815260009182526040918290208054600180830180548651600293821615610100026000190190911692909204601f8101869004860283018601909652858252919492939092908301828280156107995780601f1061076e57610100808354040283529160200191610799565b820191906000526020600020905b81548152906001019060200180831161077c57829003601f168201915b50505060028085018054604080516020601f600019610100600187161502019094169590950492830185900485028101850190915281815295969594509092509083018282801561082b5780601f106108005761010080835404028352916020019161082b565b820191906000526020600020905b81548152906001019060200180831161080e57829003601f168201915b5050505060038301805460408051602060026001851615610100026000190190941693909304601f81018490048402820184019092528181529495949350908301828280156108bb5780601f10610890576101008083540402835291602001916108bb565b820191906000526020600020905b81548152906001019060200180831161089e57829003601f168201915b5050505050908060040154905085565b60028054829081106108d957fe5b9060005260206000209060050201600091509050806000015490806001018054600181600116156101000203166002900480601f0160208091040260200160405190810160405280929190818152602001828054600181600116156101000203166002900480156107995780601f1061076e57610100808354040283529160200191610799565b60015460ff1681565b60015462010000900473ffffffffffffffffffffffffffffffffffffffff1690565b60046020526000908152604090205460ff1681565b60005481565b60015462010000900473ffffffffffffffffffffffffffffffffffffffff1633146109d057600080fd5b6109d8610c89565b6040805160a08101825260008054808352602080840188815284860188905260608501879052608085018490529183526003815293909120825181559051805192939192610a2c9260018501920190610c94565b5060408201518051610a48916002840191602090910190610c94565b5060608201518051610a64916003840191602090910190610c94565b50608082015181600401559050507fb2ae204d1d8f1d363e9ab85f40a0846761ea0ae47b29a546aff7fd0242fa7ff46000548484846000604051610aac959493929190611017565b60405180910390a16040805160a08101825260008054825260208083018781529383018690526060830185905260808301829052600280546001810180835591909352835160059093027f405787fa12a823e0f2b7631cc41b3ba8828b3321ca811111fa75cd3aa3bb5ace8101938455945180519195610b53937f405787fa12a823e0f2b7631cc41b3ba8828b3321ca811111fa75cd3aa3bb5acf90910192910190610c94565b5060408201518051610b6f916002840191602090910190610c94565b5060608201518051610b8b916003840191602090910190610c94565b5060808201518160040155505050505050565b600154610100900460ff1681565b60015462010000900473ffffffffffffffffffffffffffffffffffffffff163314610bd657600080fd5b6001805460ff1961ff001990911661010017169055565b60015462010000900473ffffffffffffffffffffffffffffffffffffffff1681565b606080600054604051908082528060200260200182016040528015610c3e578160200160208202803883390190505b50905060015b6000548111610c8357600081815260036020526040902060040154825183906000198401908110610c7157fe5b60209081029091010152600101610c44565b50905090565b600080546001019055565b828054600181600116156101000203166002900490600052602060002090601f016020900481019282601f10610cd557805160ff1916838001178555610d02565b82800160010185558215610d02579182015b82811115610d02578251825591602001919060010190610ce7565b50610d0e929150610d12565b5090565b6106bc91905b80821115610d0e5760008155600101610d18565b6000610d388235611128565b9392505050565b6000601f82018313610d5057600080fd5b8135610d63610d5e826110f6565b6110cf565b91508082526020830160208301858383011115610d7f57600080fd5b610d8a83828461115c565b50505092915050565b6000610d3882356106bc565b600060208284031215610db157600080fd5b6000610dbd8484610d2c565b949350505050565b600080600060608486031215610dda57600080fd5b833567ffffffffffffffff811115610df157600080fd5b610dfd86828701610d3f565b935050602084013567ffffffffffffffff811115610e1a57600080fd5b610e2686828701610d3f565b925050604084013567ffffffffffffffff811115610e4357600080fd5b610e4f86828701610d3f565b9150509250925092565b600060208284031215610e6b57600080fd5b6000610dbd8484610d93565b610e8081611128565b82525050565b6000610e9182611124565b80845260208401935083602082028501610eaa8561111e565b60005b84811015610ee1578383038852610ec5838351610f56565b9250610ed08261111e565b602098909801979150600101610ead565b50909695505050505050565b6000610ef882611124565b808452602084019350610f0a8361111e565b60005b82811015610f3a57610f20868351610f8b565b610f298261111e565b602096909601959150600101610f0d565b5093949350505050565b610e8081611133565b610e8081611151565b6000610f6182611124565b808452610f75816020860160208601611168565b610f7e81611198565b9093016020019392505050565b610e80816106bc565b60208101610fa28284610e77565b92915050565b60608082528101610fb98186610e86565b90508181036020830152610fcd8185610e86565b90508181036040830152610fe18184610e86565b95945050505050565b60208082528101610d388184610eed565b60208101610fa28284610f44565b60208101610fa28284610f8b565b60a081016110258288610f8b565b81810360208301526110378187610f56565b9050818103604083015261104b8186610f56565b9050818103606083015261105f8185610f56565b905061106e6080830184610f4d565b9695505050505050565b60a081016110868288610f8b565b81810360208301526110988187610f56565b905081810360408301526110ac8186610f56565b905081810360608301526110c08185610f56565b905061106e6080830184610f8b565b60405181810167ffffffffffffffff811182821017156110ee57600080fd5b604052919050565b600067ffffffffffffffff82111561110d57600080fd5b506020601f91909101601f19160190565b60200190565b5190565b6000610fa282611138565b151590565b73ffffffffffffffffffffffffffffffffffffffff1690565b6000610fa2826106bc565b82818337506000910152565b60005b8381101561118357818101518382015260200161116b565b83811115611192576000848401525b50505050565b601f01601f19169056fea265627a7a72305820756a2958f33c35c352d966f973039ab5de96226f62f54177ac17ff6b3faa36f96c6578706572696d656e74616cf50037",
  "source": "pragma solidity ^0.5.0;\r\npragma experimental ABIEncoderV2;\r\n\r\ncontract Voting {\r\n\r\n    uint public candidateCount;\r\n    bool public startVote;\r\n    bool public endVote;\r\n    address public admin; \r\n    struct Candidate {\r\n        uint id;\r\n        string name;\r\n        string party;\r\n        string info;\r\n        uint voteCount;\r\n    }\r\n    struct Users{\r\n\r\n        uint vote;\r\n        bool voted;\r\n    }\r\n    Candidate[] public candidates;\r\n    mapping(uint => Candidate) public candidatesInfo;\r\n    mapping(address => bool) public users;  \r\n\r\n    constructor() public {\r\n        candidateCount = 0;\r\n        admin = msg.sender;\r\n    }\r\n    function getAdmin() public view returns (address) {\r\n        // Returns account address used to deploy contract (i.e. admin)\r\n        return admin;\r\n    }\r\n    modifier Admin() {\r\n    require(msg.sender == admin);\r\n    _;\r\n    }\r\n\r\n    event candidateAdded(uint id,string name,string party,string info,uint voteCount);\r\n\r\n    function addCandidate(string memory _name,string memory _party,string memory _info) public Admin{\r\n        incrementCount();\r\n        candidatesInfo[candidateCount] = Candidate({id:candidateCount, name: _name,party : _party,info : _info, voteCount: 0 });\r\n        emit candidateAdded(candidateCount, _name, _party,_info, 0);    \r\n        candidates.push(Candidate(candidateCount,_name, _party,_info,0));\r\n    }\r\n\r\n    \r\n    function getCandidates() public view returns (string[] memory, string[] memory,string[] memory) {\r\n        string[] memory candidateNames = new string[](candidates.length);\r\n        string[] memory candidateParties = new string[](candidates.length);\r\n        string[] memory candidatemessage = new string[](candidates.length);\r\n        \r\n        for (uint i = 0; i < candidates.length; i++) {\r\n            candidateNames[i] = candidates[i].name;\r\n            candidateParties[i] = candidates[i].party;\r\n            candidatemessage[i] = candidates[i].info;\r\n        }\r\n        \r\n        return (candidateNames, candidateParties,candidatemessage);\r\n    }\r\n    function incrementCount() internal{\r\n        candidateCount +=1;\r\n    }\r\n    function startVoting() public Admin {\r\n        startVote = true;\r\n        endVote = false;\r\n    }\r\n    function endVoting() public  Admin{\r\n        endVote = true;\r\n        startVote = false;\r\n    }\r\n\r\n    function hasVotingStarted() public view returns (bool) {\r\n    return startVote;\r\n    }\r\n\r\n    event userVoted(uint candidateId);\r\n\r\n    function vote(uint candidateId) public {\r\n        require(users[msg.sender] == false);\r\n        require(candidateId > 0 && candidateId <= candidateCount);\r\n        require(startVote == true);\r\n        require(endVote == false);\r\n        users[msg.sender] = true;\r\n        candidatesInfo[candidateId].voteCount ++;\r\n        emit userVoted(candidateId);\r\n    }\r\nfunction getVoteCounts() public view returns (uint[] memory) {\r\n    uint[] memory voteCounts = new uint[](candidateCount);\r\n    \r\n    for (uint i = 1; i <= candidateCount; i++) {\r\n        voteCounts[i-1] = candidatesInfo[i].voteCount;\r\n    }\r\n    \r\n    return voteCounts;\r\n}\r\n\r\n\r\n}\r\n",
  "sourcePath": "D:/TUHH_ICS/Sem3_SS23/Advanced Internet Computing/PBL/AIC-A5/contracts/Voting.sol",
  "compiler": {
    "name": "solc",
    "version": "0.5.0+commit.1d4f565a.Emscripten.clang"
  },
  "schemaVersion": "3.0.1",
  "updatedAt": "2023-06-07T12:44:58.831Z",
  "devdoc": {
    "methods": {}
  },
  "userdoc": {
    "methods": {}
  }
}