{
  "contractName": "Voting",
  "abi": [
    {
      "inputs": [],
      "payable": false,
      "stateMutability": "nonpayable",
      "type": "constructor"
    },
    {
      "anonymous": false,
      "inputs": [
        {
          "indexed": false,
          "internalType": "uint256",
          "name": "id",
          "type": "uint256"
        },
        {
          "indexed": false,
          "internalType": "string",
          "name": "name",
          "type": "string"
        },
        {
          "indexed": false,
          "internalType": "string",
          "name": "party",
          "type": "string"
        },
        {
          "indexed": false,
          "internalType": "uint256",
          "name": "voteCount",
          "type": "uint256"
        }
      ],
      "name": "candidateAdded",
      "type": "event"
    },
    {
      "anonymous": false,
      "inputs": [
        {
          "indexed": false,
          "internalType": "uint256",
          "name": "candidateId",
          "type": "uint256"
        }
      ],
      "name": "userVoted",
      "type": "event"
    },
    {
      "constant": true,
      "inputs": [],
      "name": "candidateCount",
      "outputs": [
        {
          "internalType": "uint256",
          "name": "",
          "type": "uint256"
        }
      ],
      "payable": false,
      "stateMutability": "view",
      "type": "function"
    },
    {
      "constant": true,
      "inputs": [
        {
          "internalType": "uint256",
          "name": "",
          "type": "uint256"
        }
      ],
      "name": "candidatesInfo",
      "outputs": [
        {
          "internalType": "uint256",
          "name": "id",
          "type": "uint256"
        },
        {
          "internalType": "string",
          "name": "name",
          "type": "string"
        },
        {
          "internalType": "string",
          "name": "party",
          "type": "string"
        },
        {
          "internalType": "uint256",
          "name": "voteCount",
          "type": "uint256"
        }
      ],
      "payable": false,
      "stateMutability": "view",
      "type": "function"
    },
    {
      "constant": true,
      "inputs": [],
      "name": "endVote",
      "outputs": [
        {
          "internalType": "bool",
          "name": "",
          "type": "bool"
        }
      ],
      "payable": false,
      "stateMutability": "view",
      "type": "function"
    },
    {
      "constant": true,
      "inputs": [],
      "name": "startVote",
      "outputs": [
        {
          "internalType": "bool",
          "name": "",
          "type": "bool"
        }
      ],
      "payable": false,
      "stateMutability": "view",
      "type": "function"
    },
    {
      "constant": true,
      "inputs": [
        {
          "internalType": "address",
          "name": "",
          "type": "address"
        }
      ],
      "name": "users",
      "outputs": [
        {
          "internalType": "bool",
          "name": "",
          "type": "bool"
        }
      ],
      "payable": false,
      "stateMutability": "view",
      "type": "function"
    },
    {
      "constant": false,
      "inputs": [
        {
          "internalType": "string",
          "name": "_name",
          "type": "string"
        },
        {
          "internalType": "string",
          "name": "_party",
          "type": "string"
        }
      ],
      "name": "addCandidate",
      "outputs": [],
      "payable": false,
      "stateMutability": "nonpayable",
      "type": "function"
    },
    {
      "constant": false,
      "inputs": [],
      "name": "startVoting",
      "outputs": [],
      "payable": false,
      "stateMutability": "nonpayable",
      "type": "function"
    },
    {
      "constant": false,
      "inputs": [],
      "name": "endVoting",
      "outputs": [],
      "payable": false,
      "stateMutability": "nonpayable",
      "type": "function"
    },
    {
      "constant": false,
      "inputs": [
        {
          "internalType": "uint256",
          "name": "candidateId",
          "type": "uint256"
        }
      ],
      "name": "vote",
      "outputs": [],
      "payable": false,
      "stateMutability": "nonpayable",
      "type": "function"
    }
  ],
  "bytecode": "0x608060405234801561001057600080fd5b506000805561086c806100246000396000f3fe608060405234801561001057600080fd5b50600436106100935760003560e01c80634c0a6af0116100665780634c0a6af0146102f5578063a87430ba14610311578063a9a981a314610337578063b922394614610351578063c3403ddf1461035957610093565b80630121b93f146100985780631ec6b60a146100b757806326541b56146100bf578063321ca379146101ec575b600080fd5b6100b5600480360360208110156100ae57600080fd5b5035610361565b005b6100b561042c565b6100b5600480360360408110156100d557600080fd5b8101906020810181356401000000008111156100f057600080fd5b82018360208201111561010257600080fd5b8035906020019184600183028401116401000000008311171561012457600080fd5b91908080601f016020809104026020016040519081016040528093929190818152602001838380828437600092019190915250929594936020810193503591505064010000000081111561017757600080fd5b82018360208201111561018957600080fd5b803590602001918460018302840111640100000000831117156101ab57600080fd5b91908080601f016020809104026020016040519081016040528093929190818152602001838380828437600092019190915250929550610451945050505050565b6102096004803603602081101561020257600080fd5b50356105fe565b604051808581526020018060200180602001848152602001838103835286818151815260200191508051906020019080838360005b8381101561025657818101518382015260200161023e565b50505050905090810190601f1680156102835780820380516001836020036101000a031916815260200191505b50838103825285518152855160209182019187019080838360005b838110156102b657818101518382015260200161029e565b50505050905090810190601f1680156102e35780820380516001836020036101000a031916815260200191505b50965050505050505060405180910390f35b6102fd61073b565b604080519115158252519081900360200190f35b6102fd6004803603602081101561032757600080fd5b50356001600160a01b0316610744565b61033f610759565b60408051918252519081900360200190f35b6102fd61075f565b6100b561076d565b3360009081526003602052604090205460ff161561037e57600080fd5b60008111801561039057506000548111155b61039957600080fd5b6001805460ff161515146103ac57600080fd5b600154610100900460ff16156103c157600080fd5b336000908152600360208181526040808420805460ff1916600190811790915585855260028352938190209092018054909301909255805183815290517f397e0eeb5aeede3e61c0ed9d8e9a5bee8126d1cb20128c70b503907d7736a716929181900390910190a150565b6004546001600160a01b0316331461044357600080fd5b6001805460ff191681179055565b6004546001600160a01b0316331461046857600080fd5b610470610791565b604080516080810182526000805480835260208084018781528486018790526060850184905291835260028152939091208251815590518051929391926104bd926001850192019061079c565b50604082015180516104d991600284019160209091019061079c565b50606082015181600301559050507f17bc805fb174d4601852f5b3f96a5b177001033d842d9415e71347b182bf4c3b60005483836000604051808581526020018060200180602001848152602001838103835286818151815260200191508051906020019080838360005b8381101561055c578181015183820152602001610544565b50505050905090810190601f1680156105895780820380516001836020036101000a031916815260200191505b50838103825285518152855160209182019187019080838360005b838110156105bc5781810151838201526020016105a4565b50505050905090810190601f1680156105e95780820380516001836020036101000a031916815260200191505b50965050505050505060405180910390a15050565b60026020818152600092835260409283902080546001808301805487519281161561010002600019011695909504601f81018590048502820185019096528581529094919390929091908301828280156106995780601f1061066e57610100808354040283529160200191610699565b820191906000526020600020905b81548152906001019060200180831161067c57829003601f168201915b50505060028085018054604080516020601f600019610100600187161502019094169590950492830185900485028101850190915281815295969594509092509083018282801561072b5780601f106107005761010080835404028352916020019161072b565b820191906000526020600020905b81548152906001019060200180831161070e57829003601f168201915b5050505050908060030154905084565b60015460ff1681565b60036020526000908152604090205460ff1681565b60005481565b600154610100900460ff1681565b6004546001600160a01b0316331461078457600080fd5b6001805461ff0019169055565b600080546001019055565b828054600181600116156101000203166002900490600052602060002090601f016020900481019282601f106107dd57805160ff191683800117855561080a565b8280016001018555821561080a579182015b8281111561080a5782518255916020019190600101906107ef565b5061081692915061081a565b5090565b61083491905b808211156108165760008155600101610820565b9056fea265627a7a7231582042f1e1a57aa42afa5c20cf59e4fe93a69d7ce40b83d74c86046c2f9097756e7c64736f6c63430005100032",
  "source": "pragma solidity ^0.5.0;\r\n\r\ncontract Voting {\r\n\r\n    uint public candidateCount;\r\n    bool public startVote;\r\n    bool public endVote;\r\n\r\n    struct Candidate {\r\n        uint id;\r\n        string name;\r\n        string party;\r\n        uint voteCount;\r\n    }\r\n    struct Users{\r\n\r\n        uint vote;\r\n        bool voted;\r\n    }\r\n\r\n    mapping(uint => Candidate) public candidatesInfo;\r\n    mapping(address => bool) public users;  \r\n\r\n    constructor() public {\r\n        candidateCount = 0;\r\n    }\r\n    address admin; \r\n    modifier Admin() {\r\n    require(msg.sender == admin);\r\n    _;\r\n    }\r\n\r\n    event candidateAdded(uint id,string name,string party,uint voteCount);\r\n\r\n    function addCandidate(string memory _name,string memory _party) public Admin{\r\n        incrementCount();\r\n        candidatesInfo[candidateCount] = Candidate({id:candidateCount, name: _name,party : _party, voteCount: 0 });\r\n        emit candidateAdded(candidateCount, _name, _party, 0);    \r\n    }\r\n\r\n    function incrementCount() internal{\r\n        candidateCount +=1;\r\n    }\r\n    function startVoting() public Admin {\r\n        startVote = true;\r\n    }\r\n    function endVoting() public Admin {\r\n        endVote = false;\r\n    }\r\n\r\n    event userVoted(uint candidateId);\r\n\r\n    function vote(uint candidateId) public {\r\n        require(users[msg.sender] == false);\r\n        require(candidateId > 0 && candidateId <= candidateCount);\r\n        require(startVote == true);\r\n        require(endVote == false);\r\n        users[msg.sender] = true;\r\n        candidatesInfo[candidateId].voteCount ++;\r\n        emit userVoted(candidateId);\r\n    }\r\n\r\n\r\n}",
  "sourcePath": "C:\\Users\\beant\\voting\\contracts\\Voting.sol",
  "compiler": {
    "name": "solc",
    "version": "0.5.16+commit.9c3226ce.Emscripten.clang"
  },
  "schemaVersion": "3.4.13",
  "updatedAt": "2023-05-05T17:29:02.107Z",
  "networkType": "ethereum",
  "devdoc": {
    "methods": {}
  },
  "userdoc": {
    "methods": {}
  }
}