{
  "contractName": "Voting",
  "abi": [
    {
      "inputs": [],
      "payable": false,
      "stateMutability": "nonpayable",
      "type": "constructor"
    },
    {
      "anonymous": false,
      "inputs": [
        {
          "indexed": false,
          "internalType": "uint256",
          "name": "id",
          "type": "uint256"
        },
        {
          "indexed": false,
          "internalType": "string",
          "name": "name",
          "type": "string"
        },
        {
          "indexed": false,
          "internalType": "string",
          "name": "party",
          "type": "string"
        },
        {
          "indexed": false,
          "internalType": "string",
          "name": "info",
          "type": "string"
        },
        {
          "indexed": false,
          "internalType": "uint256",
          "name": "voteCount",
          "type": "uint256"
        }
      ],
      "name": "candidateAdded",
      "type": "event"
    },
    {
      "anonymous": false,
      "inputs": [
        {
          "indexed": false,
          "internalType": "uint256",
          "name": "candidateId",
          "type": "uint256"
        }
      ],
      "name": "userVoted",
      "type": "event"
    },
    {
      "constant": true,
      "inputs": [],
      "name": "admin",
      "outputs": [
        {
          "internalType": "address",
          "name": "",
          "type": "address"
        }
      ],
      "payable": false,
      "stateMutability": "view",
      "type": "function"
    },
    {
      "constant": true,
      "inputs": [],
      "name": "candidateCount",
      "outputs": [
        {
          "internalType": "uint256",
          "name": "",
          "type": "uint256"
        }
      ],
      "payable": false,
      "stateMutability": "view",
      "type": "function"
    },
    {
      "constant": true,
      "inputs": [
        {
          "internalType": "uint256",
          "name": "",
          "type": "uint256"
        }
      ],
      "name": "candidates",
      "outputs": [
        {
          "internalType": "uint256",
          "name": "id",
          "type": "uint256"
        },
        {
          "internalType": "string",
          "name": "name",
          "type": "string"
        },
        {
          "internalType": "string",
          "name": "party",
          "type": "string"
        },
        {
          "internalType": "string",
          "name": "info",
          "type": "string"
        },
        {
          "internalType": "uint256",
          "name": "voteCount",
          "type": "uint256"
        }
      ],
      "payable": false,
      "stateMutability": "view",
      "type": "function"
    },
    {
      "constant": true,
      "inputs": [
        {
          "internalType": "uint256",
          "name": "",
          "type": "uint256"
        }
      ],
      "name": "candidatesInfo",
      "outputs": [
        {
          "internalType": "uint256",
          "name": "id",
          "type": "uint256"
        },
        {
          "internalType": "string",
          "name": "name",
          "type": "string"
        },
        {
          "internalType": "string",
          "name": "party",
          "type": "string"
        },
        {
          "internalType": "string",
          "name": "info",
          "type": "string"
        },
        {
          "internalType": "uint256",
          "name": "voteCount",
          "type": "uint256"
        }
      ],
      "payable": false,
      "stateMutability": "view",
      "type": "function"
    },
    {
      "constant": true,
      "inputs": [],
      "name": "endVote",
      "outputs": [
        {
          "internalType": "bool",
          "name": "",
          "type": "bool"
        }
      ],
      "payable": false,
      "stateMutability": "view",
      "type": "function"
    },
    {
      "constant": true,
      "inputs": [],
      "name": "startVote",
      "outputs": [
        {
          "internalType": "bool",
          "name": "",
          "type": "bool"
        }
      ],
      "payable": false,
      "stateMutability": "view",
      "type": "function"
    },
    {
      "constant": true,
      "inputs": [
        {
          "internalType": "address",
          "name": "",
          "type": "address"
        }
      ],
      "name": "users",
      "outputs": [
        {
          "internalType": "bool",
          "name": "",
          "type": "bool"
        }
      ],
      "payable": false,
      "stateMutability": "view",
      "type": "function"
    },
    {
      "constant": true,
      "inputs": [],
      "name": "getAdmin",
      "outputs": [
        {
          "internalType": "address",
          "name": "",
          "type": "address"
        }
      ],
      "payable": false,
      "stateMutability": "view",
      "type": "function"
    },
    {
      "constant": false,
      "inputs": [
        {
          "internalType": "string",
          "name": "_name",
          "type": "string"
        },
        {
          "internalType": "string",
          "name": "_party",
          "type": "string"
        },
        {
          "internalType": "string",
          "name": "_info",
          "type": "string"
        }
      ],
      "name": "addCandidate",
      "outputs": [],
      "payable": false,
      "stateMutability": "nonpayable",
      "type": "function"
    },
    {
      "constant": true,
      "inputs": [],
      "name": "getCandidates",
      "outputs": [
        {
          "internalType": "string[]",
          "name": "",
          "type": "string[]"
        },
        {
          "internalType": "string[]",
          "name": "",
          "type": "string[]"
        },
        {
          "internalType": "string[]",
          "name": "",
          "type": "string[]"
        }
      ],
      "payable": false,
      "stateMutability": "view",
      "type": "function"
    },
    {
      "constant": false,
      "inputs": [],
      "name": "startVoting",
      "outputs": [],
      "payable": false,
      "stateMutability": "nonpayable",
      "type": "function"
    },
    {
      "constant": false,
      "inputs": [],
      "name": "endVoting",
      "outputs": [],
      "payable": false,
      "stateMutability": "nonpayable",
      "type": "function"
    },
    {
      "constant": false,
      "inputs": [
        {
          "internalType": "uint256",
          "name": "candidateId",
          "type": "uint256"
        }
      ],
      "name": "vote",
      "outputs": [],
      "payable": false,
      "stateMutability": "nonpayable",
      "type": "function"
    },
    {
      "constant": true,
      "inputs": [],
      "name": "getVoteCounts",
      "outputs": [
        {
          "internalType": "uint256[]",
          "name": "",
          "type": "uint256[]"
        }
      ],
      "payable": false,
      "stateMutability": "view",
      "type": "function"
    }
  ],
  "bytecode": "0x608060405234801561001057600080fd5b50600080556001805462010000330262010000600160b01b03199091161790556110fa8061003f6000396000f3fe608060405234801561001057600080fd5b50600436106100ea5760003560e01c8063a87430ba1161008c578063b922394611610066578063b9223946146101c8578063c3403ddf146101d0578063f851a440146101d8578063ffc97b20146101e0576100ea565b8063a87430ba1461018d578063a9a981a3146101a0578063ad71f8dc146101b5576100ea565b8063321ca379116100c8578063321ca3791461012c5780633477ee2e146101505780634c0a6af0146101635780636e9960c314610178576100ea565b80630121b93f146100ef57806306a49fce146101045780631ec6b60a14610124575b600080fd5b6101026100fd366004610d25565b6101f5565b005b61010c6102af565b60405161011b93929190610ea1565b60405180910390f35b6101026105dd565b61013f61013a366004610d25565b610608565b60405161011b959493929190610f71565b61013f61015e366004610d25565b6107d7565b61016b61086b565b60405161011b9190610ef4565b610180610874565b60405161011b9190610e93565b61016b61019b366004610c6b565b61088a565b6101a861089f565b60405161011b9190610f02565b6101026101c3366004610c91565b6108a5565b61016b610a90565b610102610a9e565b610180610ac8565b6101e8610add565b60405161011b9190610ee3565b3360009081526004602052604090205460ff161561021257600080fd5b60008111801561022457506000548111155b61022d57600080fd5b6001805460ff1615151461024057600080fd5b336000908152600460208181526040808420805460ff1916600190811790915585855260039092529283902090910180549091019055517f397e0eeb5aeede3e61c0ed9d8e9a5bee8126d1cb20128c70b503907d7736a716906102a4908390610f02565b60405180910390a150565b6060806060806002805490506040519080825280602002602001820160405280156102ee57816020015b60608152602001906001900390816102d95790505b509050606060028054905060405190808252806020026020018201604052801561032c57816020015b60608152602001906001900390816103175790505b509050606060028054905060405190808252806020026020018201604052801561036a57816020015b60608152602001906001900390816103555790505b50905060005b6002548110156105d0576002818154811061038757fe5b90600052602060002090600502016001018054600181600116156101000203166002900480601f01602080910402602001604051908101604052809291908181526020018280546001816001161561010002031660029004801561042c5780601f106104015761010080835404028352916020019161042c565b820191906000526020600020905b81548152906001019060200180831161040f57829003601f168201915b505050505084828151811061043d57fe5b60200260200101819052506002818154811061045557fe5b600091825260209182902060026005909202018101805460408051601f6000196101006001861615020190931694909404918201859004850284018501905280835291929091908301828280156104ed5780601f106104c2576101008083540402835291602001916104ed565b820191906000526020600020905b8154815290600101906020018083116104d057829003601f168201915b50505050508382815181106104fe57fe5b60200260200101819052506002818154811061051657fe5b6000918252602091829020600360059092020101805460408051601f60026000196101006001871615020190941693909304928301859004850281018501909152818152928301828280156105ac5780601f10610581576101008083540402835291602001916105ac565b820191906000526020600020905b81548152906001019060200180831161058f57829003601f168201915b50505050508282815181106105bd57fe5b6020908102919091010152600101610370565b5091945092509050909192565b6001546201000090046001600160a01b031633146105fa57600080fd5b6001805460ff191681179055565b6003602090815260009182526040918290208054600180830180548651600293821615610100026000190190911692909204601f8101869004860283018601909652858252919492939092908301828280156106a55780601f1061067a576101008083540402835291602001916106a5565b820191906000526020600020905b81548152906001019060200180831161068857829003601f168201915b50505060028085018054604080516020601f60001961010060018716150201909416959095049283018590048502810185019091528181529596959450909250908301828280156107375780601f1061070c57610100808354040283529160200191610737565b820191906000526020600020905b81548152906001019060200180831161071a57829003601f168201915b5050505060038301805460408051602060026001851615610100026000190190941693909304601f81018490048402820184019092528181529495949350908301828280156107c75780601f1061079c576101008083540402835291602001916107c7565b820191906000526020600020905b8154815290600101906020018083116107aa57829003601f168201915b5050505050908060040154905085565b600281815481106107e457fe5b9060005260206000209060050201600091509050806000015490806001018054600181600116156101000203166002900480601f0160208091040260200160405190810160405280929190818152602001828054600181600116156101000203166002900480156106a55780601f1061067a576101008083540402835291602001916106a5565b60015460ff1681565b6001546201000090046001600160a01b03165b90565b60046020526000908152604090205460ff1681565b60005481565b6001546201000090046001600160a01b031633146108c257600080fd5b6108ca610b58565b6040805160a0810182526000805480835260208084018881528486018890526060850187905260808501849052918352600381529390912082518155905180519293919261091e9260018501920190610b63565b506040820151805161093a916002840191602090910190610b63565b5060608201518051610956916003840191602090910190610b63565b50608082015181600401559050507fb2ae204d1d8f1d363e9ab85f40a0846761ea0ae47b29a546aff7fd0242fa7ff4600054848484600060405161099e959493929190610f10565b60405180910390a16040805160a08101825260008054825260208083018781529383018690526060830185905260808301829052600280546001810180835591909352835160059093027f405787fa12a823e0f2b7631cc41b3ba8828b3321ca811111fa75cd3aa3bb5ace8101938455945180519195610a45937f405787fa12a823e0f2b7631cc41b3ba8828b3321ca811111fa75cd3aa3bb5acf90910192910190610b63565b5060408201518051610a61916002840191602090910190610b63565b5060608201518051610a7d916003840191602090910190610b63565b5060808201518160040155505050505050565b600154610100900460ff1681565b6001546201000090046001600160a01b03163314610abb57600080fd5b6001805461ff0019169055565b6001546201000090046001600160a01b031681565b606080600054604051908082528060200260200182016040528015610b0c578160200160208202803883390190505b50905060015b6000548111610b5257600081815260036020526040902060040154825183906000198401908110610b3f57fe5b6020908102919091010152600101610b12565b50905090565b600080546001019055565b828054600181600116156101000203166002900490600052602060002090601f016020900481019282601f10610ba457805160ff1916838001178555610bd1565b82800160010185558215610bd1579182015b82811115610bd1578251825591602001919060010190610bb6565b50610bdd929150610be1565b5090565b61088791905b80821115610bdd5760008155600101610be7565b8035610c0681611097565b92915050565b600082601f830112610c1d57600080fd5b8135610c30610c2b82610fef565b610fc8565b91508082526020830160208301858383011115610c4c57600080fd5b610c57838284611051565b50505092915050565b8035610c06816110ae565b600060208284031215610c7d57600080fd5b6000610c898484610bfb565b949350505050565b600080600060608486031215610ca657600080fd5b833567ffffffffffffffff811115610cbd57600080fd5b610cc986828701610c0c565b935050602084013567ffffffffffffffff811115610ce657600080fd5b610cf286828701610c0c565b925050604084013567ffffffffffffffff811115610d0f57600080fd5b610d1b86828701610c0c565b9150509250925092565b600060208284031215610d3757600080fd5b6000610c898484610c60565b6000610d4f8383610e52565b9392505050565b6000610d628383610e8a565b505060200190565b610d738161102a565b82525050565b6000610d848261101d565b610d8e8185611021565b935083602082028501610da085611017565b8060005b85811015610dda5784840389528151610dbd8582610d43565b9450610dc883611017565b60209a909a0199925050600101610da4565b5091979650505050505050565b6000610df28261101d565b610dfc8185611021565b9350610e0783611017565b8060005b83811015610e35578151610e1f8882610d56565b9750610e2a83611017565b925050600101610e0b565b509495945050505050565b610d7381611035565b610d7381611046565b6000610e5d8261101d565b610e678185611021565b9350610e7781856020860161105d565b610e808161108d565b9093019392505050565b610d7381610887565b60208101610c068284610d6a565b60608082528101610eb28186610d79565b90508181036020830152610ec68185610d79565b90508181036040830152610eda8184610d79565b95945050505050565b60208082528101610d4f8184610de7565b60208101610c068284610e40565b60208101610c068284610e8a565b60a08101610f1e8288610e8a565b8181036020830152610f308187610e52565b90508181036040830152610f448186610e52565b90508181036060830152610f588185610e52565b9050610f676080830184610e49565b9695505050505050565b60a08101610f7f8288610e8a565b8181036020830152610f918187610e52565b90508181036040830152610fa58186610e52565b90508181036060830152610fb98185610e52565b9050610f676080830184610e8a565b60405181810167ffffffffffffffff81118282101715610fe757600080fd5b604052919050565b600067ffffffffffffffff82111561100657600080fd5b506020601f91909101601f19160190565b60200190565b5190565b90815260200190565b6000610c068261103a565b151590565b6001600160a01b031690565b6000610c0682610887565b82818337506000910152565b60005b83811015611078578181015183820152602001611060565b83811115611087576000848401525b50505050565b601f01601f191690565b6110a08161102a565b81146110ab57600080fd5b50565b6110a08161088756fea365627a7a7231582027afe05bf25edc7760dce7d827a19ee3d132433e323c47e2603ab87488a8749f6c6578706572696d656e74616cf564736f6c63430005100040",
  "source": "pragma solidity ^0.5.0;\r\npragma experimental ABIEncoderV2;\r\n\r\ncontract Voting {\r\n\r\n    uint public candidateCount;\r\n    bool public startVote;\r\n    bool public endVote;\r\n    address public admin; \r\n    struct Candidate {\r\n        uint id;\r\n        string name;\r\n        string party;\r\n        string info;\r\n        uint voteCount;\r\n    }\r\n    struct Users{\r\n\r\n        uint vote;\r\n        bool voted;\r\n    }\r\n    Candidate[] public candidates;\r\n    mapping(uint => Candidate) public candidatesInfo;\r\n    mapping(address => bool) public users;  \r\n\r\n    constructor() public {\r\n        candidateCount = 0;\r\n        admin = msg.sender;\r\n    }\r\n    function getAdmin() public view returns (address) {\r\n        // Returns account address used to deploy contract (i.e. admin)\r\n        return admin;\r\n    }\r\n    modifier Admin() {\r\n    require(msg.sender == admin);\r\n    _;\r\n    }\r\n\r\n    event candidateAdded(uint id,string name,string party,string info,uint voteCount);\r\n\r\n    function addCandidate(string memory _name,string memory _party,string memory _info) public Admin{\r\n        incrementCount();\r\n        candidatesInfo[candidateCount] = Candidate({id:candidateCount, name: _name,party : _party,info : _info, voteCount: 0 });\r\n        emit candidateAdded(candidateCount, _name, _party,_info, 0);    \r\n        candidates.push(Candidate(candidateCount,_name, _party,_info,0));\r\n    }\r\n\r\n    \r\n    function getCandidates() public view returns (string[] memory, string[] memory,string[] memory) {\r\n        string[] memory candidateNames = new string[](candidates.length);\r\n        string[] memory candidateParties = new string[](candidates.length);\r\n        string[] memory candidatemessage = new string[](candidates.length);\r\n        \r\n        for (uint i = 0; i < candidates.length; i++) {\r\n            candidateNames[i] = candidates[i].name;\r\n            candidateParties[i] = candidates[i].party;\r\n            candidatemessage[i] = candidates[i].info;\r\n        }\r\n        \r\n        return (candidateNames, candidateParties,candidatemessage);\r\n    }\r\n    function incrementCount() internal{\r\n        candidateCount +=1;\r\n    }\r\n    function startVoting() public Admin {\r\n        startVote = true;\r\n    }\r\n    function endVoting() public  Admin{\r\n        endVote = false;\r\n    }\r\n\r\n    event userVoted(uint candidateId);\r\n\r\n    function vote(uint candidateId) public {\r\n        require(users[msg.sender] == false);\r\n        require(candidateId > 0 && candidateId <= candidateCount);\r\n        require(startVote == true);\r\n        //require(endVote == false);\r\n        users[msg.sender] = true;\r\n        candidatesInfo[candidateId].voteCount ++;\r\n        emit userVoted(candidateId);\r\n    }\r\n\r\n\r\nfunction getVoteCounts() public view returns (uint[] memory) {\r\n    uint[] memory voteCounts = new uint[](candidateCount);\r\n    \r\n    for (uint i = 1; i <= candidateCount; i++) {\r\n        voteCounts[i-1] = candidatesInfo[i].voteCount;\r\n    }\r\n    \r\n    return voteCounts;\r\n}\r\n}\r\n",
  "sourcePath": "D:\\Sem2\\Advanced Internet Computing\\ProjectA5\\contracts\\Voting.sol",
  "compiler": {
    "name": "solc",
    "version": "0.5.16+commit.9c3226ce.Emscripten.clang"
  },
  "schemaVersion": "3.4.13",
  "updatedAt": "2023-05-21T19:55:28.597Z",
  "networkType": "ethereum",
  "devdoc": {
    "methods": {}
  },
  "userdoc": {
    "methods": {}
  }
}