{
  "contractName": "Voting",
  "abi": [
    {
      "inputs": [],
      "payable": false,
      "stateMutability": "nonpayable",
      "type": "constructor"
    },
    {
      "anonymous": false,
      "inputs": [
        {
          "indexed": false,
          "internalType": "uint256",
          "name": "id",
          "type": "uint256"
        },
        {
          "indexed": false,
          "internalType": "string",
          "name": "name",
          "type": "string"
        },
        {
          "indexed": false,
          "internalType": "string",
          "name": "party",
          "type": "string"
        },
        {
          "indexed": false,
          "internalType": "string",
          "name": "info",
          "type": "string"
        },
        {
          "indexed": false,
          "internalType": "uint256",
          "name": "voteCount",
          "type": "uint256"
        }
      ],
      "name": "candidateAdded",
      "type": "event"
    },
    {
      "anonymous": false,
      "inputs": [
        {
          "indexed": false,
          "internalType": "uint256",
          "name": "candidateId",
          "type": "uint256"
        }
      ],
      "name": "userVoted",
      "type": "event"
    },
    {
      "constant": true,
      "inputs": [],
      "name": "admin",
      "outputs": [
        {
          "internalType": "address",
          "name": "",
          "type": "address"
        }
      ],
      "payable": false,
      "stateMutability": "view",
      "type": "function"
    },
    {
      "constant": true,
      "inputs": [],
      "name": "candidateCount",
      "outputs": [
        {
          "internalType": "uint256",
          "name": "",
          "type": "uint256"
        }
      ],
      "payable": false,
      "stateMutability": "view",
      "type": "function"
    },
    {
      "constant": true,
      "inputs": [
        {
          "internalType": "uint256",
          "name": "",
          "type": "uint256"
        }
      ],
      "name": "candidates",
      "outputs": [
        {
          "internalType": "uint256",
          "name": "id",
          "type": "uint256"
        },
        {
          "internalType": "string",
          "name": "name",
          "type": "string"
        },
        {
          "internalType": "string",
          "name": "party",
          "type": "string"
        },
        {
          "internalType": "string",
          "name": "info",
          "type": "string"
        },
        {
          "internalType": "uint256",
          "name": "voteCount",
          "type": "uint256"
        }
      ],
      "payable": false,
      "stateMutability": "view",
      "type": "function"
    },
    {
      "constant": true,
      "inputs": [
        {
          "internalType": "uint256",
          "name": "",
          "type": "uint256"
        }
      ],
      "name": "candidatesInfo",
      "outputs": [
        {
          "internalType": "uint256",
          "name": "id",
          "type": "uint256"
        },
        {
          "internalType": "string",
          "name": "name",
          "type": "string"
        },
        {
          "internalType": "string",
          "name": "party",
          "type": "string"
        },
        {
          "internalType": "string",
          "name": "info",
          "type": "string"
        },
        {
          "internalType": "uint256",
          "name": "voteCount",
          "type": "uint256"
        }
      ],
      "payable": false,
      "stateMutability": "view",
      "type": "function"
    },
    {
      "constant": true,
      "inputs": [],
      "name": "endVote",
      "outputs": [
        {
          "internalType": "bool",
          "name": "",
          "type": "bool"
        }
      ],
      "payable": false,
      "stateMutability": "view",
      "type": "function"
    },
    {
      "constant": true,
      "inputs": [],
      "name": "startVote",
      "outputs": [
        {
          "internalType": "bool",
          "name": "",
          "type": "bool"
        }
      ],
      "payable": false,
      "stateMutability": "view",
      "type": "function"
    },
    {
      "constant": true,
      "inputs": [
        {
          "internalType": "address",
          "name": "",
          "type": "address"
        }
      ],
      "name": "users",
      "outputs": [
        {
          "internalType": "bool",
          "name": "",
          "type": "bool"
        }
      ],
      "payable": false,
      "stateMutability": "view",
      "type": "function"
    },
    {
      "constant": true,
      "inputs": [],
      "name": "getAdmin",
      "outputs": [
        {
          "internalType": "address",
          "name": "",
          "type": "address"
        }
      ],
      "payable": false,
      "stateMutability": "view",
      "type": "function"
    },
    {
      "constant": false,
      "inputs": [
        {
          "internalType": "string",
          "name": "_name",
          "type": "string"
        },
        {
          "internalType": "string",
          "name": "_party",
          "type": "string"
        },
        {
          "internalType": "string",
          "name": "_info",
          "type": "string"
        }
      ],
      "name": "addCandidate",
      "outputs": [],
      "payable": false,
      "stateMutability": "nonpayable",
      "type": "function"
    },
    {
      "constant": true,
      "inputs": [],
      "name": "getCandidates",
      "outputs": [
        {
          "internalType": "string[]",
          "name": "",
          "type": "string[]"
        },
        {
          "internalType": "string[]",
          "name": "",
          "type": "string[]"
        },
        {
          "internalType": "string[]",
          "name": "",
          "type": "string[]"
        }
      ],
      "payable": false,
      "stateMutability": "view",
      "type": "function"
    },
    {
      "constant": false,
      "inputs": [],
      "name": "startVoting",
      "outputs": [],
      "payable": false,
      "stateMutability": "nonpayable",
      "type": "function"
    },
    {
      "constant": false,
      "inputs": [],
      "name": "endVoting",
      "outputs": [],
      "payable": false,
      "stateMutability": "nonpayable",
      "type": "function"
    },
    {
      "constant": true,
      "inputs": [],
      "name": "hasVotingStarted",
      "outputs": [
        {
          "internalType": "bool",
          "name": "",
          "type": "bool"
        }
      ],
      "payable": false,
      "stateMutability": "view",
      "type": "function"
    },
    {
      "constant": false,
      "inputs": [
        {
          "internalType": "uint256",
          "name": "candidateId",
          "type": "uint256"
        }
      ],
      "name": "vote",
      "outputs": [],
      "payable": false,
      "stateMutability": "nonpayable",
      "type": "function"
    },
    {
      "constant": true,
      "inputs": [],
      "name": "getVotingStatus",
      "outputs": [
        {
          "internalType": "bool",
          "name": "",
          "type": "bool"
        }
      ],
      "payable": false,
      "stateMutability": "view",
      "type": "function"
    },
    {
      "constant": true,
      "inputs": [],
      "name": "getVoteCounts",
      "outputs": [
        {
          "internalType": "uint256[]",
          "name": "",
          "type": "uint256[]"
        }
      ],
      "payable": false,
      "stateMutability": "view",
      "type": "function"
    },
    {
      "constant": false,
      "inputs": [],
      "name": "resetUser",
      "outputs": [],
      "payable": false,
      "stateMutability": "nonpayable",
      "type": "function"
    },
    {
      "constant": false,
      "inputs": [],
      "name": "reset",
      "outputs": [],
      "payable": false,
      "stateMutability": "nonpayable",
      "type": "function"
    }
  ],
  "bytecode": "0x608060405234801561001057600080fd5b50600080556001805462010000330262010000600160b01b03199091161790556115428061003f6000396000f3fe608060405234801561001057600080fd5b50600436106101165760003560e01c80636e9960c3116100a2578063b922394611610071578063b92239461461020c578063c3403ddf14610214578063d826f88f1461021c578063f851a44014610224578063ffc97b201461022c57610116565b80636e9960c3146101bc578063a87430ba146101d1578063a9a981a3146101e4578063ad71f8dc146101f957610116565b80631ec6b60a116100e95780631ec6b60a1461016d578063321ca379146101755780633477ee2e146101995780634c0a6af0146101ac578063581c281c146101b457610116565b80630121b93f1461011b57806306a49fce1461013057806318a1afc3146101505780631980b22e14610165575b600080fd5b61012e610129366004611170565b610241565b005b610138610310565b604051610147939291906112ec565b60405180910390f35b61015861063e565b604051610147919061133f565b61012e610648565b61012e6107be565b610188610183366004611170565b6107ee565b6040516101479594939291906113bc565b6101886101a7366004611170565b6109bd565b610158610a51565b610158610a5a565b6101c4610a70565b60405161014791906112de565b6101586101df3660046110b6565b610a85565b6101ec610a9a565b604051610147919061134d565b61012e6102073660046110dc565b610aa0565b610158610c8b565b61012e610c99565b61012e610ccd565b6101c4610e62565b610234610e77565b604051610147919061132e565b3360009081526004602052604090205460ff161561025e57600080fd5b60008111801561027057506000548111155b61027957600080fd5b6001805460ff1615151461028c57600080fd5b600154610100900460ff16156102a157600080fd5b336000908152600460208181526040808420805460ff1916600190811790915585855260039092529283902090910180549091019055517f397e0eeb5aeede3e61c0ed9d8e9a5bee8126d1cb20128c70b503907d7736a7169061030590839061134d565b60405180910390a150565b60608060608060028054905060405190808252806020026020018201604052801561034f57816020015b606081526020019060019003908161033a5790505b509050606060028054905060405190808252806020026020018201604052801561038d57816020015b60608152602001906001900390816103785790505b50905060606002805490506040519080825280602002602001820160405280156103cb57816020015b60608152602001906001900390816103b65790505b50905060005b60025481101561063157600281815481106103e857fe5b90600052602060002090600502016001018054600181600116156101000203166002900480601f01602080910402602001604051908101604052809291908181526020018280546001816001161561010002031660029004801561048d5780601f106104625761010080835404028352916020019161048d565b820191906000526020600020905b81548152906001019060200180831161047057829003601f168201915b505050505084828151811061049e57fe5b6020026020010181905250600281815481106104b657fe5b600091825260209182902060026005909202018101805460408051601f60001961010060018616150201909316949094049182018590048502840185019052808352919290919083018282801561054e5780601f106105235761010080835404028352916020019161054e565b820191906000526020600020905b81548152906001019060200180831161053157829003601f168201915b505050505083828151811061055f57fe5b60200260200101819052506002818154811061057757fe5b6000918252602091829020600360059092020101805460408051601f600260001961010060018716150201909416939093049283018590048502810185019091528181529283018282801561060d5780601f106105e25761010080835404028352916020019161060d565b820191906000526020600020905b8154815290600101906020018083116105f057829003601f168201915b505050505082828151811061061e57fe5b60209081029190910101526001016103d1565b5091945092509050909192565b60015460ff165b90565b336000908152600460205260408120805460ff191690558080556001805461ffff191690555b6002548110156106d3576002818154811061068557fe5b600091825260208220600590910201818155906106a56001830182610efd565b6106b3600283016000610efd565b6106c1600383016000610efd565b5060006004919091015560010161066e565b5060015b600054811161072d576000818152600360205260408120818155906106ff6001830182610efd565b61070d600283016000610efd565b61071b600383016000610efd565b506000600491909101556001016106d7565b50606060005460405190808252806020026020018201604052801561075c578160200160208202803883390190505b50905060005b81518110156107ae576004600083838151811061077b57fe5b6020908102919091018101516001600160a01b03168252810191909152604001600020805460ff19169055600101610762565b506107bb60026000610f41565b50565b6001546201000090046001600160a01b031633146107db57600080fd5b6001805460ff1916811761ff0019169055565b6003602090815260009182526040918290208054600180830180548651600293821615610100026000190190911692909204601f81018690048602830186019096528582529194929390929083018282801561088b5780601f106108605761010080835404028352916020019161088b565b820191906000526020600020905b81548152906001019060200180831161086e57829003601f168201915b50505060028085018054604080516020601f600019610100600187161502019094169590950492830185900485028101850190915281815295969594509092509083018282801561091d5780601f106108f25761010080835404028352916020019161091d565b820191906000526020600020905b81548152906001019060200180831161090057829003601f168201915b5050505060038301805460408051602060026001851615610100026000190190941693909304601f81018490048402820184019092528181529495949350908301828280156109ad5780601f10610982576101008083540402835291602001916109ad565b820191906000526020600020905b81548152906001019060200180831161099057829003601f168201915b5050505050908060040154905085565b600281815481106109ca57fe5b9060005260206000209060050201600091509050806000015490806001018054600181600116156101000203166002900480601f01602080910402602001604051908101604052809291908181526020018280546001816001161561010002031660029004801561088b5780601f106108605761010080835404028352916020019161088b565b60015460ff1681565b3360009081526004602052604090205460ff1690565b6001546201000090046001600160a01b031690565b60046020526000908152604090205460ff1681565b60005481565b6001546201000090046001600160a01b03163314610abd57600080fd5b610ac5610ef2565b6040805160a08101825260008054808352602080840188815284860188905260608501879052608085018490529183526003815293909120825181559051805192939192610b199260018501920190610f62565b5060408201518051610b35916002840191602090910190610f62565b5060608201518051610b51916003840191602090910190610f62565b50608082015181600401559050507fb2ae204d1d8f1d363e9ab85f40a0846761ea0ae47b29a546aff7fd0242fa7ff46000548484846000604051610b9995949392919061135b565b60405180910390a16040805160a08101825260008054825260208083018781529383018690526060830185905260808301829052600280546001810180835591909352835160059093027f405787fa12a823e0f2b7631cc41b3ba8828b3321ca811111fa75cd3aa3bb5ace8101938455945180519195610c40937f405787fa12a823e0f2b7631cc41b3ba8828b3321ca811111fa75cd3aa3bb5acf90910192910190610f62565b5060408201518051610c5c916002840191602090910190610f62565b5060608201518051610c78916003840191602090910190610f62565b5060808201518160040155505050505050565b600154610100900460ff1681565b6001546201000090046001600160a01b03163314610cb657600080fd5b6001805460ff1961ff001990911661010017169055565b6001546201000090046001600160a01b03163314610cea57600080fd5b60008080556001805461ffff191690555b600254811015610d605760028181548110610d1257fe5b60009182526020822060059091020181815590610d326001830182610efd565b610d40600283016000610efd565b610d4e600383016000610efd565b50600060049190910155600101610cfb565b5060015b6000548111610dba57600081815260036020526040812081815590610d8c6001830182610efd565b610d9a600283016000610efd565b610da8600383016000610efd565b50600060049190910155600101610d64565b506060600054604051908082528060200260200182016040528015610de9578160200160208202803883390190505b50905060005b8151811015610e3b5760046000838381518110610e0857fe5b6020908102919091018101516001600160a01b03168252810191909152604001600020805460ff19169055600101610def565b50610e4860026000610f41565b50336000908152600460205260409020805460ff19169055565b6001546201000090046001600160a01b031681565b606080600054604051908082528060200260200182016040528015610ea6578160200160208202803883390190505b50905060015b6000548111610eec57600081815260036020526040902060040154825183906000198401908110610ed957fe5b6020908102919091010152600101610eac565b50905090565b600080546001019055565b50805460018160011615610100020316600290046000825580601f10610f2357506107bb565b601f0160209004906000526020600020908101906107bb9190610fe0565b50805460008255600502906000526020600020908101906107bb9190610ffa565b828054600181600116156101000203166002900490600052602060002090601f016020900481019282601f10610fa357805160ff1916838001178555610fd0565b82800160010185558215610fd0579182015b82811115610fd0578251825591602001919060010190610fb5565b50610fdc929150610fe0565b5090565b61064591905b80821115610fdc5760008155600101610fe6565b61064591905b80821115610fdc57600080825561101a6001830182610efd565b611028600283016000610efd565b611036600383016000610efd565b5060006004820155600501611000565b8035611051816114e2565b92915050565b600082601f83011261106857600080fd5b813561107b6110768261143a565b611413565b9150808252602083016020830185838301111561109757600080fd5b6110a283828461149c565b50505092915050565b8035611051816114f6565b6000602082840312156110c857600080fd5b60006110d48484611046565b949350505050565b6000806000606084860312156110f157600080fd5b833567ffffffffffffffff81111561110857600080fd5b61111486828701611057565b935050602084013567ffffffffffffffff81111561113157600080fd5b61113d86828701611057565b925050604084013567ffffffffffffffff81111561115a57600080fd5b61116686828701611057565b9150509250925092565b60006020828403121561118257600080fd5b60006110d484846110ab565b600061119a838361129d565b9392505050565b60006111ad83836112d5565b505060200190565b6111be81611475565b82525050565b60006111cf82611468565b6111d9818561146c565b9350836020820285016111eb85611462565b8060005b858110156112255784840389528151611208858261118e565b945061121383611462565b60209a909a01999250506001016111ef565b5091979650505050505050565b600061123d82611468565b611247818561146c565b935061125283611462565b8060005b8381101561128057815161126a88826111a1565b975061127583611462565b925050600101611256565b509495945050505050565b6111be81611480565b6111be81611491565b60006112a882611468565b6112b2818561146c565b93506112c28185602086016114a8565b6112cb816114d8565b9093019392505050565b6111be81610645565b6020810161105182846111b5565b606080825281016112fd81866111c4565b9050818103602083015261131181856111c4565b9050818103604083015261132581846111c4565b95945050505050565b6020808252810161119a8184611232565b60208101611051828461128b565b6020810161105182846112d5565b60a0810161136982886112d5565b818103602083015261137b818761129d565b9050818103604083015261138f818661129d565b905081810360608301526113a3818561129d565b90506113b26080830184611294565b9695505050505050565b60a081016113ca82886112d5565b81810360208301526113dc818761129d565b905081810360408301526113f0818661129d565b90508181036060830152611404818561129d565b90506113b260808301846112d5565b60405181810167ffffffffffffffff8111828210171561143257600080fd5b604052919050565b600067ffffffffffffffff82111561145157600080fd5b506020601f91909101601f19160190565b60200190565b5190565b90815260200190565b600061105182611485565b151590565b6001600160a01b031690565b600061105182610645565b82818337506000910152565b60005b838110156114c35781810151838201526020016114ab565b838111156114d2576000848401525b50505050565b601f01601f191690565b6114eb81611475565b81146107bb57600080fd5b6114eb8161064556fea365627a7a72315820dc4d49f7779eaa69dea27ff80b3f7a2dbfb47b733db2677d3fb771682d395fc96c6578706572696d656e74616cf564736f6c63430005100040",
  "source": "pragma solidity ^0.5.0;\r\npragma experimental ABIEncoderV2;\r\n\r\ncontract Voting {\r\n\r\n    uint public candidateCount;\r\n    bool public startVote;\r\n    bool public endVote;\r\n    address public admin; \r\n    struct Candidate {\r\n        uint id;\r\n        string name;\r\n        string party;\r\n        string info;\r\n        uint voteCount;\r\n    }\r\n    struct Users{\r\n\r\n        uint vote;\r\n        bool voted;\r\n    }\r\n    Candidate[] public candidates;\r\n    mapping(uint => Candidate) public candidatesInfo;\r\n    mapping(address => bool) public users;  \r\n\r\n    constructor() public {\r\n        candidateCount = 0;\r\n        admin = msg.sender;\r\n    }\r\n    function getAdmin() public view returns (address) {\r\n        // Returns account address used to deploy contract (i.e. admin)\r\n        return admin;\r\n    }\r\n    modifier Admin() {\r\n    require(msg.sender == admin);\r\n    _;\r\n    }\r\n\r\n    event candidateAdded(uint id,string name,string party,string info,uint voteCount);\r\n\r\n    function addCandidate(string memory _name,string memory _party,string memory _info) public Admin{\r\n        incrementCount();\r\n        candidatesInfo[candidateCount] = Candidate({id:candidateCount, name: _name,party : _party,info : _info, voteCount: 0 });\r\n        emit candidateAdded(candidateCount, _name, _party,_info, 0);    \r\n        candidates.push(Candidate(candidateCount,_name, _party,_info,0));\r\n    }\r\n\r\n    \r\n    function getCandidates() public view returns (string[] memory, string[] memory,string[] memory) {\r\n        string[] memory candidateNames = new string[](candidates.length);\r\n        string[] memory candidateParties = new string[](candidates.length);\r\n        string[] memory candidatemessage = new string[](candidates.length);\r\n        \r\n        for (uint i = 0; i < candidates.length; i++) {\r\n            candidateNames[i] = candidates[i].name;\r\n            candidateParties[i] = candidates[i].party;\r\n            candidatemessage[i] = candidates[i].info;\r\n        }\r\n        \r\n        return (candidateNames, candidateParties,candidatemessage);\r\n    }\r\n    function incrementCount() internal{\r\n        candidateCount +=1;\r\n    }\r\n    function startVoting() public Admin {\r\n        startVote = true;\r\n        endVote = false;\r\n    }\r\n    function endVoting() public  Admin{\r\n        endVote = true;\r\n        startVote = false;\r\n    }\r\n\r\n    function hasVotingStarted() public view returns (bool) {\r\n    return startVote;\r\n    }\r\n\r\n    event userVoted(uint candidateId);\r\n\r\n    function vote(uint candidateId) public {\r\n        require(users[msg.sender] == false);\r\n        require(candidateId > 0 && candidateId <= candidateCount);\r\n        require(startVote == true);\r\n        require(endVote == false);\r\n        users[msg.sender] = true;\r\n        candidatesInfo[candidateId].voteCount ++;\r\n        emit userVoted(candidateId);\r\n    }\r\n\r\n    function getVotingStatus() public view returns (bool) {\r\n        return users[msg.sender];\r\n    }\r\n\r\n    function getVoteCounts() public view returns (uint[] memory) {\r\n    uint[] memory voteCounts = new uint[](candidateCount);\r\n    \r\n    for (uint i = 1; i <= candidateCount; i++) {\r\n        voteCounts[i-1] = candidatesInfo[i].voteCount;\r\n    }\r\n    \r\n    return voteCounts;\r\n}\r\n\r\nfunction resetUser() public {\r\n        \r\n        users[msg.sender] = false; // Reset user's voting status to false\r\n        candidateCount = 0;\r\n    startVote = false;\r\n    endVote = false;\r\n\r\n    for (uint i = 0; i < candidates.length; i++) {\r\n        delete candidates[i];\r\n    }\r\n\r\n    for (uint j = 1; j <= candidateCount; j++) {\r\n        delete candidatesInfo[j];\r\n    }\r\n\r\n    address[] memory userAddresses = new address[](candidateCount);\r\n    for (uint k = 0; k < userAddresses.length; k++) {\r\n        delete users[userAddresses[k]];\r\n    }\r\n    delete candidates;\r\n}\r\n\r\nfunction reset() public Admin {\r\n    candidateCount = 0;\r\n    startVote = false;\r\n    endVote = false;\r\n\r\n    for (uint i = 0; i < candidates.length; i++) {\r\n        delete candidates[i];\r\n    }\r\n\r\n    for (uint j = 1; j <= candidateCount; j++) {\r\n        delete candidatesInfo[j];\r\n    }\r\n\r\n    address[] memory userAddresses = new address[](candidateCount);\r\n    for (uint k = 0; k < userAddresses.length; k++) {\r\n        delete users[userAddresses[k]];\r\n    }\r\n    delete candidates;\r\n    users[msg.sender] = false;\r\n}\r\n}\r\n",
  "sourcePath": "D:\\Sem2\\Advanced Internet Computing\\New\\contracts\\Voting.sol",
  "compiler": {
    "name": "solc",
    "version": "0.5.16+commit.9c3226ce.Emscripten.clang"
  },
  "schemaVersion": "3.4.13",
  "updatedAt": "2023-06-21T10:37:05.984Z",
  "networkType": "ethereum",
  "devdoc": {
    "methods": {}
  },
  "userdoc": {
    "methods": {}
  }
}