{
  "contractName": "Voting",
  "abi": [
    {
      "inputs": [],
      "payable": false,
      "stateMutability": "nonpayable",
      "type": "constructor"
    },
    {
      "anonymous": false,
      "inputs": [
        {
          "indexed": false,
          "internalType": "uint256",
          "name": "id",
          "type": "uint256"
        },
        {
          "indexed": false,
          "internalType": "string",
          "name": "name",
          "type": "string"
        },
        {
          "indexed": false,
          "internalType": "string",
          "name": "party",
          "type": "string"
        },
        {
          "indexed": false,
          "internalType": "string",
          "name": "info",
          "type": "string"
        },
        {
          "indexed": false,
          "internalType": "uint256",
          "name": "voteCount",
          "type": "uint256"
        }
      ],
      "name": "candidateAdded",
      "type": "event"
    },
    {
      "anonymous": false,
      "inputs": [
        {
          "indexed": false,
          "internalType": "uint256",
          "name": "candidateId",
          "type": "uint256"
        }
      ],
      "name": "userVoted",
      "type": "event"
    },
    {
      "constant": true,
      "inputs": [],
      "name": "admin",
      "outputs": [
        {
          "internalType": "address",
          "name": "",
          "type": "address"
        }
      ],
      "payable": false,
      "stateMutability": "view",
      "type": "function"
    },
    {
      "constant": true,
      "inputs": [],
      "name": "candidateCount",
      "outputs": [
        {
          "internalType": "uint256",
          "name": "",
          "type": "uint256"
        }
      ],
      "payable": false,
      "stateMutability": "view",
      "type": "function"
    },
    {
      "constant": true,
      "inputs": [
        {
          "internalType": "uint256",
          "name": "",
          "type": "uint256"
        }
      ],
      "name": "candidates",
      "outputs": [
        {
          "internalType": "uint256",
          "name": "id",
          "type": "uint256"
        },
        {
          "internalType": "string",
          "name": "name",
          "type": "string"
        },
        {
          "internalType": "string",
          "name": "party",
          "type": "string"
        },
        {
          "internalType": "string",
          "name": "info",
          "type": "string"
        },
        {
          "internalType": "uint256",
          "name": "voteCount",
          "type": "uint256"
        }
      ],
      "payable": false,
      "stateMutability": "view",
      "type": "function"
    },
    {
      "constant": true,
      "inputs": [
        {
          "internalType": "uint256",
          "name": "",
          "type": "uint256"
        }
      ],
      "name": "candidatesInfo",
      "outputs": [
        {
          "internalType": "uint256",
          "name": "id",
          "type": "uint256"
        },
        {
          "internalType": "string",
          "name": "name",
          "type": "string"
        },
        {
          "internalType": "string",
          "name": "party",
          "type": "string"
        },
        {
          "internalType": "string",
          "name": "info",
          "type": "string"
        },
        {
          "internalType": "uint256",
          "name": "voteCount",
          "type": "uint256"
        }
      ],
      "payable": false,
      "stateMutability": "view",
      "type": "function"
    },
    {
      "constant": true,
      "inputs": [],
      "name": "endVote",
      "outputs": [
        {
          "internalType": "bool",
          "name": "",
          "type": "bool"
        }
      ],
      "payable": false,
      "stateMutability": "view",
      "type": "function"
    },
    {
      "constant": true,
      "inputs": [],
      "name": "startVote",
      "outputs": [
        {
          "internalType": "bool",
          "name": "",
          "type": "bool"
        }
      ],
      "payable": false,
      "stateMutability": "view",
      "type": "function"
    },
    {
      "constant": true,
      "inputs": [
        {
          "internalType": "address",
          "name": "",
          "type": "address"
        }
      ],
      "name": "users",
      "outputs": [
        {
          "internalType": "bool",
          "name": "",
          "type": "bool"
        }
      ],
      "payable": false,
      "stateMutability": "view",
      "type": "function"
    },
    {
      "constant": true,
      "inputs": [],
      "name": "getAdmin",
      "outputs": [
        {
          "internalType": "address",
          "name": "",
          "type": "address"
        }
      ],
      "payable": false,
      "stateMutability": "view",
      "type": "function"
    },
    {
      "constant": false,
      "inputs": [
        {
          "internalType": "string",
          "name": "_name",
          "type": "string"
        },
        {
          "internalType": "string",
          "name": "_party",
          "type": "string"
        },
        {
          "internalType": "string",
          "name": "_info",
          "type": "string"
        }
      ],
      "name": "addCandidate",
      "outputs": [],
      "payable": false,
      "stateMutability": "nonpayable",
      "type": "function"
    },
    {
      "constant": true,
      "inputs": [],
      "name": "getCandidates",
      "outputs": [
        {
          "internalType": "string[]",
          "name": "",
          "type": "string[]"
        },
        {
          "internalType": "string[]",
          "name": "",
          "type": "string[]"
        },
        {
          "internalType": "string[]",
          "name": "",
          "type": "string[]"
        }
      ],
      "payable": false,
      "stateMutability": "view",
      "type": "function"
    },
    {
      "constant": false,
      "inputs": [],
      "name": "startVoting",
      "outputs": [],
      "payable": false,
      "stateMutability": "nonpayable",
      "type": "function"
    },
    {
      "constant": false,
      "inputs": [],
      "name": "endVoting",
      "outputs": [],
      "payable": false,
      "stateMutability": "nonpayable",
      "type": "function"
    },
    {
      "constant": true,
      "inputs": [],
      "name": "hasVotingStarted",
      "outputs": [
        {
          "internalType": "bool",
          "name": "",
          "type": "bool"
        }
      ],
      "payable": false,
      "stateMutability": "view",
      "type": "function"
    },
    {
      "constant": false,
      "inputs": [
        {
          "internalType": "uint256",
          "name": "candidateId",
          "type": "uint256"
        }
      ],
      "name": "vote",
      "outputs": [],
      "payable": false,
      "stateMutability": "nonpayable",
      "type": "function"
    },
    {
      "constant": true,
      "inputs": [],
      "name": "getVoteCounts",
      "outputs": [
        {
          "internalType": "uint256[]",
          "name": "",
          "type": "uint256[]"
        }
      ],
      "payable": false,
      "stateMutability": "view",
      "type": "function"
    }
  ],
  "bytecode": "0x608060405234801561001057600080fd5b50600080556001805462010000330262010000600160b01b03199091161790556111208061003f6000396000f3fe608060405234801561001057600080fd5b50600436106100f55760003560e01c80636e9960c311610097578063b922394611610066578063b9223946146101db578063c3403ddf146101e3578063f851a440146101eb578063ffc97b20146101f3576100f5565b80636e9960c31461018b578063a87430ba146101a0578063a9a981a3146101b3578063ad71f8dc146101c8576100f5565b80631ec6b60a116100d35780631ec6b60a14610144578063321ca3791461014c5780633477ee2e146101705780634c0a6af014610183576100f5565b80630121b93f146100fa57806306a49fce1461010f57806318a1afc31461012f575b600080fd5b61010d610108366004610d4b565b610208565b005b6101176102c2565b60405161012693929190610ec7565b60405180910390f35b6101376105f0565b6040516101269190610f1a565b61010d6105fa565b61015f61015a366004610d4b565b610625565b604051610126959493929190610f97565b61015f61017e366004610d4b565b6107f4565b610137610888565b610193610891565b6040516101269190610eb9565b6101376101ae366004610c91565b6108a6565b6101bb6108bb565b6040516101269190610f28565b61010d6101d6366004610cb7565b6108c1565b610137610aac565b61010d610aba565b610193610aee565b6101fb610b03565b6040516101269190610f09565b3360009081526004602052604090205460ff161561022557600080fd5b60008111801561023757506000548111155b61024057600080fd5b6001805460ff1615151461025357600080fd5b336000908152600460208181526040808420805460ff1916600190811790915585855260039092529283902090910180549091019055517f397e0eeb5aeede3e61c0ed9d8e9a5bee8126d1cb20128c70b503907d7736a716906102b7908390610f28565b60405180910390a150565b60608060608060028054905060405190808252806020026020018201604052801561030157816020015b60608152602001906001900390816102ec5790505b509050606060028054905060405190808252806020026020018201604052801561033f57816020015b606081526020019060019003908161032a5790505b509050606060028054905060405190808252806020026020018201604052801561037d57816020015b60608152602001906001900390816103685790505b50905060005b6002548110156105e3576002818154811061039a57fe5b90600052602060002090600502016001018054600181600116156101000203166002900480601f01602080910402602001604051908101604052809291908181526020018280546001816001161561010002031660029004801561043f5780601f106104145761010080835404028352916020019161043f565b820191906000526020600020905b81548152906001019060200180831161042257829003601f168201915b505050505084828151811061045057fe5b60200260200101819052506002818154811061046857fe5b600091825260209182902060026005909202018101805460408051601f6000196101006001861615020190931694909404918201859004850284018501905280835291929091908301828280156105005780601f106104d557610100808354040283529160200191610500565b820191906000526020600020905b8154815290600101906020018083116104e357829003601f168201915b505050505083828151811061051157fe5b60200260200101819052506002818154811061052957fe5b6000918252602091829020600360059092020101805460408051601f60026000196101006001871615020190941693909304928301859004850281018501909152818152928301828280156105bf5780601f10610594576101008083540402835291602001916105bf565b820191906000526020600020905b8154815290600101906020018083116105a257829003601f168201915b50505050508282815181106105d057fe5b6020908102919091010152600101610383565b5091945092509050909192565b60015460ff165b90565b6001546201000090046001600160a01b0316331461061757600080fd5b6001805460ff191681179055565b6003602090815260009182526040918290208054600180830180548651600293821615610100026000190190911692909204601f8101869004860283018601909652858252919492939092908301828280156106c25780601f10610697576101008083540402835291602001916106c2565b820191906000526020600020905b8154815290600101906020018083116106a557829003601f168201915b50505060028085018054604080516020601f60001961010060018716150201909416959095049283018590048502810185019091528181529596959450909250908301828280156107545780601f1061072957610100808354040283529160200191610754565b820191906000526020600020905b81548152906001019060200180831161073757829003601f168201915b5050505060038301805460408051602060026001851615610100026000190190941693909304601f81018490048402820184019092528181529495949350908301828280156107e45780601f106107b9576101008083540402835291602001916107e4565b820191906000526020600020905b8154815290600101906020018083116107c757829003601f168201915b5050505050908060040154905085565b6002818154811061080157fe5b9060005260206000209060050201600091509050806000015490806001018054600181600116156101000203166002900480601f0160208091040260200160405190810160405280929190818152602001828054600181600116156101000203166002900480156106c25780601f10610697576101008083540402835291602001916106c2565b60015460ff1681565b6001546201000090046001600160a01b031690565b60046020526000908152604090205460ff1681565b60005481565b6001546201000090046001600160a01b031633146108de57600080fd5b6108e6610b7e565b6040805160a0810182526000805480835260208084018881528486018890526060850187905260808501849052918352600381529390912082518155905180519293919261093a9260018501920190610b89565b5060408201518051610956916002840191602090910190610b89565b5060608201518051610972916003840191602090910190610b89565b50608082015181600401559050507fb2ae204d1d8f1d363e9ab85f40a0846761ea0ae47b29a546aff7fd0242fa7ff460005484848460006040516109ba959493929190610f36565b60405180910390a16040805160a08101825260008054825260208083018781529383018690526060830185905260808301829052600280546001810180835591909352835160059093027f405787fa12a823e0f2b7631cc41b3ba8828b3321ca811111fa75cd3aa3bb5ace8101938455945180519195610a61937f405787fa12a823e0f2b7631cc41b3ba8828b3321ca811111fa75cd3aa3bb5acf90910192910190610b89565b5060408201518051610a7d916002840191602090910190610b89565b5060608201518051610a99916003840191602090910190610b89565b5060808201518160040155505050505050565b600154610100900460ff1681565b6001546201000090046001600160a01b03163314610ad757600080fd5b6001805460ff1961ff001990911661010017169055565b6001546201000090046001600160a01b031681565b606080600054604051908082528060200260200182016040528015610b32578160200160208202803883390190505b50905060015b6000548111610b7857600081815260036020526040902060040154825183906000198401908110610b6557fe5b6020908102919091010152600101610b38565b50905090565b600080546001019055565b828054600181600116156101000203166002900490600052602060002090601f016020900481019282601f10610bca57805160ff1916838001178555610bf7565b82800160010185558215610bf7579182015b82811115610bf7578251825591602001919060010190610bdc565b50610c03929150610c07565b5090565b6105f791905b80821115610c035760008155600101610c0d565b8035610c2c816110bd565b92915050565b600082601f830112610c4357600080fd5b8135610c56610c5182611015565b610fee565b91508082526020830160208301858383011115610c7257600080fd5b610c7d838284611077565b50505092915050565b8035610c2c816110d4565b600060208284031215610ca357600080fd5b6000610caf8484610c21565b949350505050565b600080600060608486031215610ccc57600080fd5b833567ffffffffffffffff811115610ce357600080fd5b610cef86828701610c32565b935050602084013567ffffffffffffffff811115610d0c57600080fd5b610d1886828701610c32565b925050604084013567ffffffffffffffff811115610d3557600080fd5b610d4186828701610c32565b9150509250925092565b600060208284031215610d5d57600080fd5b6000610caf8484610c86565b6000610d758383610e78565b9392505050565b6000610d888383610eb0565b505060200190565b610d9981611050565b82525050565b6000610daa82611043565b610db48185611047565b935083602082028501610dc68561103d565b8060005b85811015610e005784840389528151610de38582610d69565b9450610dee8361103d565b60209a909a0199925050600101610dca565b5091979650505050505050565b6000610e1882611043565b610e228185611047565b9350610e2d8361103d565b8060005b83811015610e5b578151610e458882610d7c565b9750610e508361103d565b925050600101610e31565b509495945050505050565b610d998161105b565b610d998161106c565b6000610e8382611043565b610e8d8185611047565b9350610e9d818560208601611083565b610ea6816110b3565b9093019392505050565b610d99816105f7565b60208101610c2c8284610d90565b60608082528101610ed88186610d9f565b90508181036020830152610eec8185610d9f565b90508181036040830152610f008184610d9f565b95945050505050565b60208082528101610d758184610e0d565b60208101610c2c8284610e66565b60208101610c2c8284610eb0565b60a08101610f448288610eb0565b8181036020830152610f568187610e78565b90508181036040830152610f6a8186610e78565b90508181036060830152610f7e8185610e78565b9050610f8d6080830184610e6f565b9695505050505050565b60a08101610fa58288610eb0565b8181036020830152610fb78187610e78565b90508181036040830152610fcb8186610e78565b90508181036060830152610fdf8185610e78565b9050610f8d6080830184610eb0565b60405181810167ffffffffffffffff8111828210171561100d57600080fd5b604052919050565b600067ffffffffffffffff82111561102c57600080fd5b506020601f91909101601f19160190565b60200190565b5190565b90815260200190565b6000610c2c82611060565b151590565b6001600160a01b031690565b6000610c2c826105f7565b82818337506000910152565b60005b8381101561109e578181015183820152602001611086565b838111156110ad576000848401525b50505050565b601f01601f191690565b6110c681611050565b81146110d157600080fd5b50565b6110c6816105f756fea365627a7a723158202da2b8c707b247336c6745bed2e880f0805b966989cee40b22209fe5819dd47f6c6578706572696d656e74616cf564736f6c63430005100040",
  "source": "pragma solidity ^0.5.0;\r\npragma experimental ABIEncoderV2;\r\n\r\ncontract Voting {\r\n\r\n    uint public candidateCount;\r\n    bool public startVote;\r\n    bool public endVote;\r\n    address public admin; \r\n    struct Candidate {\r\n        uint id;\r\n        string name;\r\n        string party;\r\n        string info;\r\n        uint voteCount;\r\n    }\r\n    struct Users{\r\n\r\n        uint vote;\r\n        bool voted;\r\n    }\r\n    Candidate[] public candidates;\r\n    mapping(uint => Candidate) public candidatesInfo;\r\n    mapping(address => bool) public users;  \r\n\r\n    constructor() public {\r\n        candidateCount = 0;\r\n        admin = msg.sender;\r\n    }\r\n    function getAdmin() public view returns (address) {\r\n        // Returns account address used to deploy contract (i.e. admin)\r\n        return admin;\r\n    }\r\n    modifier Admin() {\r\n    require(msg.sender == admin);\r\n    _;\r\n    }\r\n\r\n    event candidateAdded(uint id,string name,string party,string info,uint voteCount);\r\n\r\n    function addCandidate(string memory _name,string memory _party,string memory _info) public Admin{\r\n        incrementCount();\r\n        candidatesInfo[candidateCount] = Candidate({id:candidateCount, name: _name,party : _party,info : _info, voteCount: 0 });\r\n        emit candidateAdded(candidateCount, _name, _party,_info, 0);    \r\n        candidates.push(Candidate(candidateCount,_name, _party,_info,0));\r\n    }\r\n\r\n    \r\n    function getCandidates() public view returns (string[] memory, string[] memory,string[] memory) {\r\n        string[] memory candidateNames = new string[](candidates.length);\r\n        string[] memory candidateParties = new string[](candidates.length);\r\n        string[] memory candidatemessage = new string[](candidates.length);\r\n        \r\n        for (uint i = 0; i < candidates.length; i++) {\r\n            candidateNames[i] = candidates[i].name;\r\n            candidateParties[i] = candidates[i].party;\r\n            candidatemessage[i] = candidates[i].info;\r\n        }\r\n        \r\n        return (candidateNames, candidateParties,candidatemessage);\r\n    }\r\n    function incrementCount() internal{\r\n        candidateCount +=1;\r\n    }\r\n    function startVoting() public Admin {\r\n        startVote = true;\r\n    }\r\n    function endVoting() public  Admin{\r\n        endVote = true;\r\n        startVote = false;\r\n    }\r\n\r\n    function hasVotingStarted() public view returns (bool) {\r\n    return startVote;\r\n    }\r\n\r\n    event userVoted(uint candidateId);\r\n\r\n    function vote(uint candidateId) public {\r\n        require(users[msg.sender] == false);\r\n        require(candidateId > 0 && candidateId <= candidateCount);\r\n        require(startVote == true);\r\n        //require(endVote == false);\r\n        users[msg.sender] = true;\r\n        candidatesInfo[candidateId].voteCount ++;\r\n        emit userVoted(candidateId);\r\n    }\r\nfunction getVoteCounts() public view returns (uint[] memory) {\r\n    uint[] memory voteCounts = new uint[](candidateCount);\r\n    \r\n    for (uint i = 1; i <= candidateCount; i++) {\r\n        voteCounts[i-1] = candidatesInfo[i].voteCount;\r\n    }\r\n    \r\n    return voteCounts;\r\n}\r\n\r\n\r\n}\r\n",
  "sourcePath": "D:\\Sem2\\Advanced Internet Computing\\New\\contracts\\Voting.sol",
  "compiler": {
    "name": "solc",
    "version": "0.5.16+commit.9c3226ce.Emscripten.clang"
  },
  "schemaVersion": "3.4.13",
  "updatedAt": "2023-05-27T11:31:23.772Z",
  "networkType": "ethereum",
  "devdoc": {
    "methods": {}
  },
  "userdoc": {
    "methods": {}
  }
}